:100000000C9463000C948B000C948B000C948B006C
:100010000C948B000C948B000C948B000C948B0034
:100020000C948B000C948B000C948B000C948B0024
:100030000C948B000C948B000C948B000C948B0014
:100040000C9487040C948B000C9455040C942F048E
:100050000C948B000C948B000C948B000C948B00F4
:100060000C948B000C948B000000000023002600F1
:10007000290000000008000201000003040700003E
:1000800000000000000000000000250028002B00F8
:1000900000000000240027002A00040404040404D3
:1000A0000404020202020202030303030303010227
:1000B00004081020408001020408102001020408F6
:1000C0001020D1043B0711241FBECFEFD8E0DEBFC4
:1000D000CDBF11E0A0E0B1E0EEE1F1E102C005909A
:1000E0000D92A434B107D9F722E0A4E4B1E001C035
:1000F0001D92A536B207E1F710E0C2E6D0E004C0D9
:100100002197FE010E944107C136D107C9F70E941D
:10011000E7050C9482080C940000EDE4F1E0A0895E
:10012000B18982E08C93A485B5851C92A685B7859C
:100130008FEC8C93108EA489B58986E08C93A2896C
:10014000B3898C9180618C93A289B3898C918860EA
:100150008C93A289B3898C9180688C930288F389EF
:10016000E02D80818F7D80830895CF92DF92EF9282
:10017000FF920F931F93CF93DF936C017A018B0152
:10018000C0E0D0E0CE15DF0589F0D8016D918D017A
:10019000D601ED91FC910190F081E02DC601099509
:1001A000892B11F47E0102C02196ECCFC701DF91AB
:1001B000CF911F910F91FF90EF90DF90CF90089516
:1001C000FC01918D828D981761F0828DDF01A80F5F
:1001D000B11D5D968C91928D9F5F9F73928F90E081
:1001E00008958FEF9FEF0895FC01918D828D9817F0
:1001F00031F0828DE80FF11D858D90E008958FEF2D
:100200009FEF0895FC01918D228D892F90E0805CF5
:100210009F4F821B91098F73992708958DE491E078
:100220000E94020121E0892B09F420E0822F089529
:10023000FC01848DDF01A80FB11DA35ABF4F2C9183
:10024000848D90E001968F739927848FA689B78952
:100250002C93A089B1898C9180648C93938D848D2B
:10026000981306C00288F389E02D80818F7D8083FA
:100270000895EF92FF920F931F93CF93DF93EC01BA
:1002800081E0888F9B8D8C8D981305C0E889F98952
:10029000808185FD24C0F62E0B8D10E00F5F1F4F6F
:1002A0000F731127E02E8C8DE8120CC00FB607FCDF
:1002B000FACFE889F989808185FFF5CFCE010E94C8
:1002C0001801F1CF8B8DFE01E80FF11DE35AFF4FAE
:1002D000F0820B8FEA89FB898081806207C0EE89FA
:1002E000FF896083E889F98980818064808381E067
:1002F00090E0DF91CF911F910F91FF90EF900895C3
:10030000CF93DF93EC01888D8823C9F0EA89FB89BC
:10031000808185FD05C0A889B9898C9186FD0FC0B3
:100320000FB607FCF5CF808185FFF2CFA889B98988
:100330008C9185FFEDCFCE010E941801E7CFDF91B0
:10034000CF91089580E090E0892B29F00E940E0162
:1003500081110C9400000895833081F028F48130DD
:1003600099F08230A1F008958730A9F08830B9F073
:100370008430D1F4809180008F7D03C08091800013
:100380008F7780938000089584B58F7702C084B5FD
:100390008F7D84BD08958091B0008F7703C08091D8
:1003A000B0008F7D8093B00008951F93CF93DF93AB
:1003B000282F30E0F901EE58FF4F8491F901E25502
:1003C000FF4FD491F901E656FF4FC491CC23C9F0F9
:1003D000162F81110E94AC01EC2FF0E0EE0FFF1FF1
:1003E000EA57FF4FA591B4918FB7F894111105C04A
:1003F0009C91ED2FE095E92302C0EC91ED2BEC935D
:100400008FBFDF91CF911F9108953FB7F8948091EE
:10041000490190914A01A0914B01B0914C0126B540
:10042000A89B05C02F3F19F00196A11DB11D3FBF2C
:10043000BA2FA92F982F8827820F911DA11DB11DBA
:10044000BC01CD0142E0660F771F881F991F4A95B6
:10045000D1F708958F929F92AF92BF92CF92DF9281
:10046000EF92FF926B017C010E9405024B015C013F
:10047000C114D104E104F104F1F00E940502DC0191
:10048000CB0188199909AA09BB09883E9340A105A7
:10049000B10570F321E0C21AD108E108F10888EE35
:1004A000880E83E0981EA11CB11CC114D104E10484
:1004B000F10419F7DDCFFF90EF90DF90CF90BF9060
:1004C000AF909F908F9008952FB7F8946091450159
:1004D0007091460180914701909148012FBF089586
:1004E0008F929F92AF92BF92CF92DF92EF92FF9244
:1004F0000F931F93CF93DF93EC017B018A018A81D5
:100500008823A9F00E9464028C809D80AE80BF8009
:10051000AB01BC01481959096A097B09C701FF0CE5
:10052000AA0BBB0B84179507A607B707F8F08A81BB
:10053000811127C00E946402CC80DD80EE80FF80A4
:10054000DC01CB018C199D09AE09BF09012E000CFD
:10055000220B330B081719072A073B0790F461E0B9
:100560008B810E94D50181E08A8305C060E08B8188
:100570000E94D5011A820E9464026C837D838E835F
:100580009F83DF91CF911F910F91FF90EF90DF90AC
:10059000CF90BF90AF909F908F900895CF93DF93AF
:1005A000A0E0B0E040E050E0FB0120813181421743
:1005B0005307C8F4EB01EC81FD81EA0FFB1F228198
:1005C00033810190F081E02DEF2B49F42B30310580
:1005D00024F02A50FC01208702C0EC0128874F5FDD
:1005E0005F4F1496E1CFEC012885213079F048F077
:1005F000223089F02330B9F44EE150E06EE170E032
:100600000EC040ED57E062E370E009C046E950E0FB
:1006100066E970E004C046E950E068EE73E0DF91FF
:10062000CF910C947002DF91CF91089580E090E01B
:100630000895CF92DF92EF92FF920F931F93CF9383
:10064000DF93EC018C010E5F1F4F8C8180FF02C095
:10065000826001C08D7F8C832A8130E0F901EE58E1
:10066000FF4F8491F901E255FF4FE490F901E656FE
:10067000FF4FF490FF20A1F081110E94AC01EF2DFB
:10068000F0E0EE0FFF1FE859FF4FA591B491EC91F8
:10069000EE2191E080E009F490E0292F382F02C08C
:1006A00020E030E04B8150E08C812417350711F4B5
:1006B0008E7F01C081608C838C81282F30E0A9015E
:1006C000559547952427352720FF44C00E94640292
:1006D000CC84DD84EE84FF842D81222341F06C19CB
:1006E0007D09888999896817790708F45EC00E9496
:1006F00064026C877D878E879F878C8180FF13C003
:100700008A8D9B8D01969B8F8A8FEA89FB89309712
:1007100011F0C80109950E9464026E837F83888767
:1007200099871C8E13C0EC89FD89309711F0C801A0
:100730000995EE89FF89309711F0C80109958FEF6F
:100740009FEFDC018E839F83A887B9878C818460AB
:100750008C832BC08B7F8C838E819F81A885B985EC
:100760008F3F9F4FAF4FBF4F01F18C8D81111DC047
:100770000E946402CE80DF80E884F984AB01BC0172
:100780004C195D096E097F098A859B85A0E0B0E060
:1007900084179507A607B70740F4E88DF98D3097C1
:1007A00021F0C801099581E08C8F8E819F81A885F9
:1007B000B9858F3F9F4FAF4FBF4FD1F08C8D8111C7
:1007C00017C00E9464020E811F8128853985DC01D3
:1007D000CB01801B910BA20BB30B8D3D9540A10566
:1007E000B10530F081E08C8F9E8D98279E8F8F8F82
:1007F0008C8182FF06C080FD04C08F8D882339F074
:100800001F8E8D8D9E8D992351F0865F08C08D8D32
:100810008F5F843010F48D8FF4CF1D8EF2CFDF9177
:10082000CF911F910F91FF90EF90DF90CF9008959F
:100830006115710579F0FB0101900020E9F731970E
:10084000AF01461B570BDC01ED91FC910280F38157
:10085000E02D099480E090E008950E9474081F92B2
:100860000F920FB60F9211242F933F934F935F93E4
:100870006F937F938F939F93AF93BF93EF93FF9368
:100880008DE491E00E941801FF91EF91BF91AF912B
:100890009F918F917F916F915F914F913F912F9198
:1008A0000F900FBE0F901F9018951F920F920FB6CA
:1008B0000F9211242F938F939F93EF93FF93E091C7
:1008C0005D01F0915E018081E0916301F09164012E
:1008D00082FD12C09081809166018F5F8F7320919D
:1008E0006701821751F0E0916601F0E0E35BFE4F93
:1008F000958F8093660101C08081FF91EF919F9158
:100900008F912F910F900FBE0F901F9018951F92EF
:100910000F920FB60F9211242F933F938F939F93B3
:10092000AF93BF938091450190914601A0914701FB
:10093000B09148013091440123E0230F2D3720F47A
:100940000196A11DB11D05C026E8230F0296A11D29
:10095000B11D209344018093450190934601A093DB
:100960004701B09348018091490190914A01A091BB
:100970004B01B0914C010196A11DB11D809349011D
:1009800090934A01A0934B01B0934C01BF91AF915A
:100990009F918F913F912F910F900FBE0F901F90BD
:1009A0001895CF93DF931092500110924F0188EE6B
:1009B00093E0A0E0B0E08093510190935201A093A6
:1009C0005301B09354018AE091E090934E018093DB
:1009D0004D0185EC90E090935A018093590184EC8D
:1009E00090E090935C0180935B0180EC90E09093A9
:1009F0005E0180935D0181EC90E0909360018093B3
:100A00005F0182EC90E0909362018093610186EC3B
:100A100090E09093640180936301109266011092BC
:100A2000670110926801109269011092F001109212
:100A3000F1011092F2011092F3011092F401109260
:100A4000F5011092F6011092F7011092F801109240
:100A5000F9011092FA011092FB011092FC01109220
:100A6000FD011092FE011092FF0110925C021092A3
:100A70005B0210925E0210925D0210926002109270
:100A80005F0288E291E090933C0280933B0286E013
:100A900080933D02E4EBF0E02491E0EAF0E0849101
:100AA0008823C1F090E0880F991FFC01E057FF4FA9
:100AB000C591D491FC01EA57FF4FA591B4919FB71E
:100AC000F8948881E22FE0958E2388838C91E82327
:100AD000EC939FBFC1E0C093400286E490E0909306
:100AE0004C0280934B020E94640260934702709311
:100AF00048028093490290934A02C0933E0261E00B
:100B000080913D020E94D50110923F0280913E02E9
:100B1000811102C0C0933F0210924E0210924D020A
:100B20001092500210924F021092520210925102F3
:100B300010925402109253021092560210925502D3
:100B400081E08093570280E291E090933C02809391
:100B50003B02109258021092590210925A028AE1F6
:100B600091E09093330280933202109236021092F9
:100B70003702109238021092390210923A028DE038
:100B800080933502EBEBF0E02491E7EAF0E084910A
:100B9000882399F090E0880F991FFC01E057FF4FE0
:100BA000A591B491FC01EA57FF4F859194918FB7BD
:100BB000F894EC91E22BEC938FBF60E080913502CA
:100BC0000E94D50110923402DF91CF910895CF9306
:100BD000DF9300D000D000D0CDB7DEB7789484B5D5
:100BE000826084BD84B5816084BD85B5826085BD29
:100BF00085B5816085BD80916E00816080936E00B7
:100C000010928100809181008260809381008091A8
:100C10008100816080938100809180008160809359
:100C200080008091B10084608093B1008091B00019
:100C300081608093B00080917A00846080937A0014
:100C400080917A00826080937A0080917A0081603E
:100C500080937A0080917A00806880937A00109265
:100C6000C10010922E0210922F02109230021092A8
:100C700031021092EC011092ED011092EE011092EF
:100C8000EF0160ED77E080E090E00E942A028DE4C1
:100C900091E090932D0280932C020E948D000E947F
:100CA00064026093EC017093ED018093EE019093E8
:100CB000EF016CE271E080912C0290912D020E9474
:100CC00018046AE070E080E090E00E942A0281E06F
:100CD000809300020E948D006EE371E08DE491E04C
:100CE0000E9418046BE371E08DE491E00E94180407
:100CF00080915D0290915E0220915B0230915C02D6
:100D00008217930709F56C01CC0CDD1C892B11F0BF
:100D1000C60102C081E090E090935E0280935D0284
:100D2000880F991F0E9447078C01E0905F02F090A6
:100D30006002A601B7010E947908C7010E94DC0782
:100D40001093600200935F02E0915F02F0916002F5
:100D500080915B0290915C029C012F5F3F4F30932A
:100D60005C0220935B02880F991FE80FF91F8BE349
:100D700092E0918380831A8219821C821B821E82D8
:100D80001D8200E010E080915B0290915C020817E8
:100D9000190708F062C0E0915F02F09160026801FB
:100DA000CC0CDD1CEC0DFD1D80819181DC01ED91F1
:100DB000FC910190F081E02D09957C0180915F020A
:100DC00090916002FC01EC0DFD1D80819181DC01A0
:100DD000ED91FC910280F381E02D0995C82ED12C74
:100DE000AB80BC8089819A81A816B90609F5A11447
:100DF000B10421F0C501880F991F02C081E090E085
:100E00009C838B83880F991F880F991F0E94470727
:100E10004C016D807E80A501440F551F440F551F66
:100E2000B3010E947908C3010E94DC079E828D8273
:100E3000ED81FE8129813A81C90101969A838983D6
:100E4000220F331F220F331FE20FF31FF182E082C4
:100E5000D382C2820F5F1F4F96CFBE016F5F7F4F5D
:100E600082E392E00E94CE028D819E810E94DC0787
:100E70000E94A20180CF80915F02909160020C9449
:100E8000DC07EE0FFF1F0590F491E02D0994CF933E
:100E9000DF938230910510F482E090E0E0916302EC
:100EA000F091640220E030E0C0E0D0E0309711F132
:100EB0004081518148175907C0F04817590761F41C
:100EC00082819381209719F09B838A832BC0909312
:100ED00064028093630226C02115310519F0421780
:100EE000530718F49A01BE01DF01EF010280F3817C
:100EF000E02DDCCF2115310509F1281B390B2430F9
:100F0000310590F412968D919C911397611571059E
:100F100021F0FB019383828304C090936402809349
:100F20006302FD01329644C0FD01E20FF31F81937D
:100F30009193225031092D933C933AC02091610244
:100F400030916202232B41F4209102013091030180
:100F500030936202209361022091000130910101DF
:100F60002115310541F42DB73EB740910401509150
:100F70000501241B350BE0916102F0916202E2173A
:100F8000F307A0F42E1B3F0B2817390778F0AC01AC
:100F90004E5F5F4F2417350748F04E0F5F1F509389
:100FA0006202409361028193919302C0E0E0F0E01D
:100FB000CF01DF91CF9108950F931F93CF93DF93CC
:100FC000009709F48CC0FC013297138212820091C1
:100FD0006302109164020115110581F420813181B1
:100FE000820F931F20916102309162022817390706
:100FF00079F5F0936202E093610271C0D80140E09C
:1010000050E0AE17BF0750F412962D913C91139704
:10101000AD012115310509F1D901F3CF9D01DA01A7
:101020003383228360817181860F971F8217930714
:1010300069F4EC0128813981260F371F2E5F3F4F5D
:10104000318320838A819B8193838283452B29F47A
:10105000F0936402E093630242C01396FC93EE9314
:101060001297ED01499159919E01240F351FE21706
:10107000F30771F480819181840F951F0296119678
:101080009C938E938281938113969C938E93129757
:10109000E0E0F0E0D80112968D919C9113970097B3
:1010A00019F0F8018C01F6CF8D919C9198012E5F7B
:1010B0003F4F820F931F20916102309162022817E7
:1010C000390769F4309729F4109264021092630290
:1010D00002C0138212821093620200936102DF91B8
:1010E000CF911F910F91089581E090E0F8940C94B6
:1010F0008208FB01DC0102C001900D92415050407A
:10110000D8F7089510E0C2E6D0E004C0FE010E94C6
:0E11100041072196C336D107C9F7F894FFCFE7
:10111E00000065028000000000003901B5000201E8
:10112E00E000F400800100000000CE02000000008C
:10113E0016031903000000002D042D04564D4450D3
:10114E00565F317C315F564D4450560D0A00537434
:04115E006172740046
:107E0000112484B714BE81FFF0D085E080938100F7
:107E100082E08093C00088E18093C10086E0809377
:107E2000C20080E18093C4008EE0C9D0259A86E02C
:107E300020E33CEF91E0309385002093840096BBD3
:107E4000B09BFECF1D9AA8958150A9F7CC24DD24C4
:107E500088248394B5E0AB2EA1E19A2EF3E0BF2EE7
:107E6000A2D0813461F49FD0082FAFD0023811F036
:107E7000013811F484E001C083E08DD089C08234E0
:107E800011F484E103C0853419F485E0A6D080C0E4
:107E9000853579F488D0E82EFF2485D0082F10E0AE
:107EA000102F00270E291F29000F111F8ED06801E7
:107EB0006FC0863521F484E090D080E0DECF843638
:107EC00009F040C070D06FD0082F6DD080E0C81688
:107ED00080E7D80618F4F601B7BEE895C0E0D1E017
:107EE00062D089930C17E1F7F0E0CF16F0E7DF06D8
:107EF00018F0F601B7BEE89568D007B600FCFDCFD4
:107F0000A601A0E0B1E02C9130E011968C91119780
:107F100090E0982F8827822B932B1296FA010C0160
:107F200087BEE89511244E5F5F4FF1E0A038BF0790
:107F300051F7F601A7BEE89507B600FCFDCF97BE46
:107F4000E89526C08437B1F42ED02DD0F82E2BD052
:107F50003CD0F601EF2C8F010F5F1F4F84911BD097
:107F6000EA94F801C1F70894C11CD11CFA94CF0C13
:107F7000D11C0EC0853739F428D08EE10CD085E9AC
:107F80000AD08FE07ACF813511F488E018D01DD067
:107F900080E101D065CF982F8091C00085FFFCCF94
:107FA0009093C60008958091C00087FFFCCF809118
:107FB000C00084FD01C0A8958091C6000895E0E648
:107FC000F0E098E1908380830895EDDF803219F02E
:107FD00088E0F5DFFFCF84E1DECF1F93182FE3DFCA
:107FE0001150E9F7F2DF1F91089580E0E8DFEE27F6
:047FF000FF270994CA
:027FFE00040479
:0400000300007E007B
:00000001FF