:100000000C9462000C948A000C948A000C948A0070
:100010000C948A000C948A000C948A000C948A0038
:100020000C948A000C948A000C948A000C948A0028
:100030000C948A000C948A000C948A000C948A0018
:100040000C9447050C948A000C9415050C94EF044D
:100050000C948A000C948A000C948A000C948A00F8
:100060000C948A000C948A000000000023002600F3
:10007000290000000008000201000003040700003E
:1000800000000000000000000000250028002B00F8
:1000900000000000240027002A00040404040404D3
:1000A0000404020202020202030303030303010227
:1000B00004081020408001020408102001020408F6
:1000C0001020910511241FBECFEFD8E0DEBFCDBFB9
:1000D00011E0A0E0B1E0ECE8F1E102C005900D9282
:1000E000A435B107D9F722E0A4E5B1E001C01D9223
:1000F000AA34B207E1F710E0C2E6D0E004C02197CD
:10010000FE010E946A07C136D107C9F70E94850621
:100110000C94C4080C940000EDE5F1E0A089B189CD
:1001200082E08C93A485B5851C92A685B7858FEC5B
:100130008C93108EA489B58986E08C93A289B389AB
:100140008C9180618C93A289B3898C9188608C9307
:10015000A289B3898C9180688C930288F389E02D01
:1001600080818F7D80830895CF92DF92EF92FF92FE
:100170000F931F93CF93DF936C017A018B01C0E043
:10018000D0E0CE15DF0589F0D8016D918D01D60143
:10019000ED91FC910190F081E02DC6010995892B2C
:1001A00011F47E0102C02196ECCFC701DF91CF91FF
:1001B0001F910F91FF90EF90DF90CF900895FC0179
:1001C000918D828D981761F0828DDF01A80FB11D8E
:1001D0005D968C91928D9F5F9F73928F90E00895B2
:1001E0008FEF9FEF0895FC01918D828D981731F06C
:1001F000828DE80FF11D858D90E008958FEF9FEFC0
:100200000895FC01918D228D892F90E0805C9F4F95
:10021000821B91098F73992708958DE591E00E94C3
:10022000010121E0892B09F420E0822F0895FC01CF
:10023000848DDF01A80FB11DA35ABF4F2C91848D6F
:1002400090E001968F739927848FA689B7892C93A4
:10025000A089B1898C9180648C93938D848D98133F
:1002600006C00288F389E02D80818F7D8083089508
:10027000EF92FF920F931F93CF93DF93EC0181E0F6
:10028000888F9B8D8C8D981305C0E889F9898081B2
:1002900085FD24C0F62E0B8D10E00F5F1F4F0F73EE
:1002A0001127E02E8C8DE8120CC00FB607FCFACF98
:1002B000E889F989808185FFF5CFCE010E94170179
:1002C000F1CF8B8DFE01E80FF11DE35AFF4FF08255
:1002D0000B8FEA89FB898081806207C0EE89FF89E4
:1002E0006083E889F98980818064808381E090E07F
:1002F000DF91CF911F910F91FF90EF900895CF93D1
:10030000DF93EC01888D8823C9F0EA89FB8980811D
:1003100085FD05C0A889B9898C9186FD0FC00FB6EF
:1003200007FCF5CF808185FFF2CFA889B9898C9130
:1003300085FFEDCFCE010E941701E7CFDF91CF916E
:10034000089580E090E0892B29F00E940D01811131
:100350000C9400000895833081F028F4813099F0E6
:100360008230A1F008958730A9F08830B9F0843048
:10037000D1F4809180008F7D03C0809180008F77C1
:1003800080938000089584B58F7702C084B58F7DF7
:1003900084BD08958091B0008F7703C08091B00034
:1003A0008F7D8093B00008951F93CF93DF93282F04
:1003B00030E0F901EE58FF4F8491F901E255FF4F0B
:1003C000D491F901E656FF4FC491CC23C9F0162F02
:1003D00081110E94AB01EC2FF0E0EE0FFF1FEA57F6
:1003E000FF4FA591B4918FB7F894111105C09C915E
:1003F000ED2FE095E92302C0EC91ED2BEC938FBF3C
:10040000DF91CF911F9108953FB7F89480915901E2
:1004100090915A01A0915B01B0915C0126B5A89B17
:1004200005C02F3F19F00196A11DB11D3FBFBA2F86
:10043000A92F982F8827820F911DA11DB11DBC01E6
:10044000CD0142E0660F771F881F991F4A95D1F7AB
:1004500008958F929F92AF92BF92CF92DF92EF92C8
:10046000FF926B017C010E9404024B015C01C114EC
:10047000D104E104F104F1F00E940402DC01CB019B
:1004800088199909AA09BB09883E9340A105B105BD
:1004900070F321E0C21AD108E108F10888EE880E55
:1004A00083E0981EA11CB11CC114D104E104F10425
:1004B00019F7DDCFFF90EF90DF90CF90BF90AF9016
:1004C0009F908F9008952FB7F89460915501709187
:1004D000560180915701909158012FBF0895EF92D6
:1004E000FF920F931F93CF93DF93EC017B018A015F
:1004F0008A81882399F00E9463022C813D81AB019F
:10050000BC01421B530B61097109C701FF0CAA0B07
:10051000BB0B84179507A607B707E8F08A818111FE
:1005200023C00E9463022C813D81DC01CB01821B30
:10053000930BA109B109012E000C220B330B0817F4
:1005400019072A073B0780F461E08B810E94D401E0
:1005500081E08A8305C060E08B810E94D4011A8209
:100560000E9463027D836C83DF91CF911F910F9175
:10057000FF90EF90089580E090E00895CF92DF9291
:10058000EF92FF920F931F93CF93DF93EC018C01B7
:100590000E5F1F4F8C8180FF02C0826001C08D7F83
:1005A0008C832A8130E0F901EE58FF4F8491F901E4
:1005B000E255FF4FE490F901E656FF4FF490FF201B
:1005C000A1F081110E94AB01EF2DF0E0EE0FFF1FB3
:1005D000E859FF4FA591B491EC91EE2191E080E0B4
:1005E00009F490E0292F382F02C020E030E04B8141
:1005F00050E08C812417350711F48E7F01C0816093
:100600008C838C81282F30E0A901559547952427AC
:10061000352720FF44C00E946302CC84DD84EE8431
:10062000FF842D81222341F06C197D0988899989E5
:100630006817790708F45EC00E9463026C877D87A3
:100640008E879F878C8180FF13C08A8D9B8D01963A
:100650009B8F8A8FEA89FB89309711F0C801099531
:100660000E9463026E837F83888799871C8E13C0E4
:10067000EC89FD89309711F0C8010995EE89FF8951
:10068000309711F0C80109958FEF9FEFDC018E8341
:100690009F83A887B9878C8184608C832BC08B7FD4
:1006A0008C838E819F81A885B9858F3F9F4FAF4FE7
:1006B000BF4F01F18C8D81111DC00E946302CE805D
:1006C000DF80E884F984AB01BC014C195D096E0937
:1006D0007F098A859B85A0E0B0E084179507A6076F
:1006E000B70740F4E88DF98D309721F0C8010995DE
:1006F00081E08C8F8E819F81A885B9858F3F9F4F28
:10070000AF4FBF4FD1F08C8D811117C00E94630293
:100710000E811F8128853985DC01CB01801B910B5F
:10072000A20BB30B8D3D9540A105B10530F081E0E2
:100730008C8F9E8D98279E8F8F8F8C8182FF06C015
:1007400080FD04C08F8D882339F01F8E8D8D9E8D86
:10075000992351F0865F08C08D8D8F5F843010F42F
:100760008D8FF4CF1D8EF2CFDF91CF911F910F911E
:10077000FF90EF90DF90CF9008956115710579F0AB
:10078000FB0101900020E9F73197AF01461B570BA1
:10079000DC01ED91FC910280F381E02D099480E071
:1007A00090E008954F925F926F927F92EF92FF9246
:1007B0000F931F93CF93DF93CDB7DEB7A1970FB6FB
:1007C000F894DEBF0FBECDBF7C01FA01CB0119A2A8
:1007D000223008F42AE08E010F5D1F4F422E512C6B
:1007E000612C712CBF01A30192010E94A208F901A2
:1007F000CA01015011096A3014F4605D01C0695CDE
:10080000D8016C93232B242B252B61F7B801C7014A
:100810000E94BD03A1960FB6F894DEBF0FBECDBFF8
:10082000DF91CF911F910F91FF90EF907F906F908C
:100830005F904F900895CF92DF92EF92FF92CF9307
:10084000DF93AB01BC0177FF23C06A017B01E0911C
:100850005D01F0915E010190F081E02D6DE28DE58A
:1008600091E00995EC0144275527BA014C195D091F
:100870006E097F092AE08DE591E00E94D2038C0F7A
:100880009D1FDF91CF91FF90EF90DF90CF90089563
:100890002AE08DE591E0DF91CF91FF90EF90DF901E
:1008A000CF900C94D203CF93DF93BC01990F880BA8
:1008B000990B0E941B04EC016AE471E08DE591E064
:1008C0000E94BD038C0F9D1FDF91CF9108958F92E1
:1008D0009F92AF92BF92CF92DF92EF92FF920F93CF
:1008E0001F93CF93DF93442309F46AC0EC016B019B
:1008F000042F10E016950795A12CB12CA016B10677
:1009000039F1D601ED91FD916D0180809180E280F9
:10091000F380B401092C000C880B990B0E941B0476
:100920006CE271E08DE591E00E94BD03C7010E9479
:100930005304892849F4BBE0EB16F10424F086EF58
:100940008E0D8E8301C0EE828FEFA81AB80AD6CF23
:1009500060E371E08DE591E00E94BD034E8150E0BF
:1009600060E070E02AE08DE591E00E94D2036AE445
:1009700071E08DE591E00E94BD038E81813069F0C8
:1009800038F08230E9F446E950E068EE73E009C0DF
:1009900040ED57E062E370E004C046E950E066E9EC
:1009A00070E0CE01DF91CF911F910F91FF90EF90FA
:1009B000DF90CF90BF90AF909F908F900C946F027C
:1009C000DF91CF911F910F91FF90EF90DF90CF902B
:1009D000BF90AF909F908F9008950E949D081F92A6
:1009E0000F920FB60F9211242F933F934F935F9363
:1009F0006F937F938F939F93AF93BF93EF93FF93E7
:100A00008DE591E00E941701FF91EF91BF91AF91A9
:100A10009F918F917F916F915F914F913F912F9116
:100A20000F900FBE0F901F9018951F920F920FB648
:100A30000F9211242F938F939F93EF93FF93E09145
:100A40006D01F0916E018081E0917301F09174016C
:100A500082FD12C09081809176018F5F8F7320910B
:100A60007701821751F0E0917601F0E0E35AFE4FF2
:100A7000958F8093760101C08081FF91EF919F91C6
:100A80008F912F910F900FBE0F901F9018951F926E
:100A90000F920FB60F9211242F933F938F939F9332
:100AA000AF93BF938091550190915601A09157014A
:100AB000B09158013091540123E0230F2D3720F4D9
:100AC0000196A11DB11D05C026E8230F0296A11DA8
:100AD000B11D209354018093550190935601A0932A
:100AE0005701B09358018091590190915A01A091FA
:100AF0005B01B0915C010196A11DB11D809359016C
:100B000090935A01A0935B01B0935C01BF91AF91A8
:100B10009F918F913F912F910F900FBE0F901F903B
:100B200018951F93CF93DF931092600110925F018D
:100B300088EE93E0A0E0B0E08093610190936201C1
:100B4000A0936301B09364018AE091E090935E0109
:100B500080935D0185EC90E090936A018093690138
:100B600084EC90E090936C0180936B0180EC90E0BA
:100B700090936E0180936D0181EC90E090937001F1
:100B800080936F0182EC90E09093720180937101E9
:100B900086EC90E09093740180937301109276013B
:100BA0001092770110927801109279011092000250
:100BB000109201021092020210920302109204029B
:100BC000109205021092060210920702109208027B
:100BD0001092090210920A0210920B0210920C025B
:100BE00010920D0210920E0210920F0280E290E01D
:100BF0000E947007EC0188E291E09983888386E087
:100C00008A83E4EBF0E02491E0EAF0E08491882329
:100C1000C9F090E0880F991FFC01E057FF4F459104
:100C20005491FC01EA57FF4FA591B4919FB7F894F6
:100C3000FA0180812095822380838C91E22FE82322
:100C4000EC939FBF11E01D8386E490E0998B888B25
:100C50000E9463026C877D878E879F871B8361E07C
:100C60008A810E94D4011C828B81811101C01C8366
:100C70001B8A1A8A1D8A1C8A1F8A1E8A198E188E40
:100C80001B8E1A8E81E08C8F80E291E0998388839D
:100C90001D8E1E8E1F8ED0934502C093440287E0A6
:100CA00090E00E947007EC018AE191E099838883CB
:100CB0001D821C821E828DE08B83EBEBF0E0849121
:100CC000E7EAF0E02491222399F030E0220F331F6D
:100CD000F901E057FF4FA591B491F901EA57FF4F91
:100CE000259134919FB7F894EC91E82BEC939FBF3A
:100CF00060E08B810E94D4011A82D0934302C0939A
:100D00004202DF91CF911F910895CF93DF9300D0DE
:100D1000CDB7DEB7789484B5826084BD84B5816038
:100D200084BD85B5826085BD85B5816085BD8091B6
:100D30006E00816080936E0010928100809181002E
:100D40008260809381008091810081608093810026
:100D5000809180008160809380008091B1008460E8
:100D60008093B1008091B00081608093B000809149
:100D70007A00846080937A0080917A008260809308
:100D80007A0080917A00816080937A0080917A0065
:100D9000806880937A001092C10010923E021092F7
:100DA0003F0210924002109241021092FC011092F8
:100DB000FD011092FE011092FF0160ED77E080E0EE
:100DC00090E00E9429028DE591E090933D0280938E
:100DD0003C020E948C000E9463026093FC017093AD
:100DE000FD018093FE019093FF016BE371E0809120
:100DF0003C0290913D020E94BD036AE070E080E0F9
:100E000090E00E94290281E0809310020E948C00F1
:100E10006DE471E08DE591E00E94BD036AE471E04C
:100E20008DE591E00E94BD038091440290914502BE
:100E3000DC01ED91FC910190F081E02D09956C01B0
:100E40008091440290914502DC01ED91FC91028079
:100E5000F381E02D0995082F10E046010D2C000CC0
:100E6000AA08BB08C501B4010E941B046CE271E032
:100E70008DE591E00E94BD03C8010E94530484E007
:100E800090E00E9470077C01FC01D182C082138334
:100E90000283C501B4010E941B046CE271E08DE580
:100EA00091E00E94BD03C8010E945304FA82E982C6
:100EB0008091420290914302DC01ED91FC910190FE
:100EC000F081E02D42E0BE016F5F7F4F09950E94E7
:100ED000A101AACFEE0FFF1F0590F491E02D099418
:100EE000CF93DF938230910510F482E090E0E0919F
:100EF0004802F091490220E030E0C0E0D0E03097B5
:100F000011F14081518148175907C0F0481759071E
:100F100061F482819381209719F09B838A832BC08F
:100F2000909349028093480226C02115310519F09B
:100F30004217530718F49A01BE01DF01EF01028046
:100F4000F381E02DDCCF2115310509F1281B390B88
:100F50002430310590F412968D919C911397611570
:100F6000710521F0FB019383828304C090934902B1
:100F700080934802FD01329644C0FD01E20FF31F49
:100F800081939193225031092D933C933AC0209143
:100F9000460230914702232B41F420910201309107
:100FA00003013093470220934602209100013091C3
:100FB00001012115310541F42DB73EB740910401DF
:100FC00050910501241B350BE0914602F091470238
:100FD000E217F307A0F42E1B3F0B2817390778F010
:100FE000AC014E5F5F4F2417350748F04E0F5F1F6F
:100FF00050934702409346028193919302C0E0E0F0
:10100000F0E0CF01DF91CF9108950F931F93CF931D
:10101000DF93009709F48CC0FC013297138212828F
:1010200000914802109149020115110581F42081B7
:101030003181820F931F2091460230914702281779
:10104000390779F5F0934702E093460271C0D80161
:1010500040E050E0AE17BF0750F412962D913C913E
:101060001397AD012115310509F1D901F3CF9D0188
:10107000DA013383228360817181860F971F821783
:10108000930769F4EC0128813981260F371F2E5F01
:101090003F4F318320838A819B8193838283452BB9
:1010A00029F4F0934902E093480242C01396FC935E
:1010B000EE931297ED01499159919E01240F351F2E
:1010C000E217F30771F480819181840F951F0296D6
:1010D00011969C938E938281938113969C938E9309
:1010E0001297E0E0F0E0D80112968D919C91139751
:1010F000009719F0F8018C01F6CF8D919C91980121
:101100002E5F3F4F820F931F20914602309147027E
:101110002817390769F4309729F410924902109280
:10112000480202C0138212821093470200934602C3
:10113000DF91CF911F910F91089581E090E0F89495
:101140000C94C408A1E21A2EAA1BBB1BFD010DC002
:10115000AA1FBB1FEE1FFF1FA217B307E407F50767
:1011600020F0A21BB30BE40BF50B661F771F881F43
:10117000991F1A9469F760957095809590959B01D9
:0C118000AC01BD01CF010895F894FFCF31
:10118C0000004A028000000000003801B400010198
:10119C00DF00F3007F010000000067040000000086
:1011AC00BB02BE0200000000ED04ED04203A20005A
:1011BC005F6D6F64652069733A2000564D4450563C
:1011CC005F317C315F564D4450560D0A00537461AB
:0411DC007274000029
:00000001FF
