:100000000C9463000C948B000C948B000C948B006C
:100010000C948B000C948B000C948B000C948B0034
:100020000C948B000C948B000C948B000C948B0024
:100030000C948B000C948B000C948B000C948B0014
:100040000C94070A0C948B000C94CC070C94A60714
:100050000C948B000C948B000C948B000C948B00F4
:100060000C948B000C948B000000000023002600F1
:10007000290000000000240027002A0000000000E2
:10008000250028002B0004040404040404040202D4
:100090000202020203030303030301020408102007
:1000A0004080010204081020010204081020000012
:1000B0000008000201000003040700000000000027
:1000C00000006D0A510A11241FBECFEFD8E0DEBF39
:1000D000CDBF11E0A0E0B1E0E8E5FDE102C0059090
:1000E0000D92A236B107D9F722E0A2E6B1E001C035
:1000F0001D92AF3DB207E1F710E0C2E6D0E004C0C8
:100100002197FE010E94350DC136D107C9F70E9423
:100110005A0B0C949F0E0C94000080E090E0089520
:10012000CF92DF92EF92FF920F931F93CF93DF93C3
:10013000EC018C010E5F1F4F8C8180FF02C082603A
:1001400001C08D7F8C832A8130E0F901E255FF4F99
:100150008491F901E656FF4FE490F901EA57FF4F09
:10016000F490FF20A1F081110E94FE07EF2DF0E036
:10017000EE0FFF1FE859FF4FA591B491EC91EE21CE
:1001800091E080E009F490E0292F382F02C020E0B0
:1001900030E04B8150E08C812417350711F48E7FBD
:1001A00001C081608C838C81282F30E0A901559596
:1001B00047952427352720FF44C00E94F208CC84AD
:1001C000DD84EE84FF842D81222341F06C197D09AA
:1001D000888999896817790708F45EC00E94F20837
:1001E0006C877D878E879F878C8180FF13C08A8D67
:1001F0009B8D01969B8F8A8FEA89FB89309711F03E
:10020000C80109950E94F2086E837F8388879987C9
:100210001C8E13C0EC89FD89309711F0C801099537
:10022000EE89FF89309711F0C80109958FEF9FEF94
:10023000DC018E839F83A887B9878C8184608C833F
:100240002BC08B7F8C838E819F81A885B9858F3F42
:100250009F4FAF4FBF4F01F18C8D81111DC00E9488
:10026000F208CE80DF80E884F984AB01BC014C1930
:100270005D096E097F098A859B85A0E0B0E084173F
:100280009507A607B70740F4E88DF98D309721F060
:10029000C801099581E08C8F8E819F81A885B985E1
:1002A0008F3F9F4FAF4FBF4FD1F08C8D811117C043
:1002B0000E94F2080E811F8128853985DC01CB015F
:1002C000801B910BA20BB30B8D3D9540A105B10591
:1002D00030F081E08C8F9E8D98279E8F8F8F8C8140
:1002E00082FF06C080FD04C08F8D882339F01F8EE9
:1002F0008D8D9E8D992351F0865F08C08D8D8F5F07
:10030000843010F48D8FF4CF1D8EF2CFDF91CF911A
:100310001F910F91FF90EF90DF90CF900895CF92B3
:10032000DF92EF92FF920F931F93CF93DF937B01A6
:10033000EA01690160E070E02AE082E691E00E9453
:1003400023076CE371E082E691E00E940E07A801AA
:1003500060E070E02AE082E691E00E94230760E41A
:1003600071E082E691E00E940E07C8018C199D0998
:10037000B701615071090E94020D8B01CB010E94EF
:100380006C0760E471E082E691E00E940E07CC16F3
:10039000DD0660F4CE018C199D098017910748F0A5
:1003A000B8010E94020DEB01219605C0C0E0D0E02B
:1003B00002C0C1E0D0E0CE010E946C0764E471E0AD
:1003C00082E691E00E940E07A70160E070E02AE05B
:1003D00082E691E00E94230768E571E082E691E001
:1003E0000E940E07CE01DF91CF911F910F91FF90D8
:1003F000EF90DF90CF900895CF93DF93EC01888545
:100400009985009711F00E94D00D8E8187FD05C05F
:1004100060E0DF91CF910C945708DF91CF91089560
:10042000CF92DF92EF92FF921F93CF93DF93EC0175
:100430006B01142F8EE091E0998388831B821986CB
:10044000188A198A1A8A1B8A81E08F878C871D86F1
:1004500092E09E878A837B01EE0CFF1CE60EF71E5E
:10046000FF82EE82C7010E943B0D9B878A8700971F
:1004700041F0A70160E070E00E94760EDD82CC8240
:1004800004C01F821E821D821C8218878B818823D4
:1004900041F061E0812F0E94570860E0812F0E94A7
:1004A0002708812F90E0FC01EA57FF4FE491F0E02C
:1004B000EE0FFF1FE458FF4F259134913D8B2C8B9D
:1004C000FC01E656FF4FE491EE8B1F8A198E188EC1
:1004D00088EE93E09B8F8A8F8CEA9DE09D8F8C8FB6
:1004E00080E49FE19F8F8E8F8CE49DE199A388A388
:1004F0001AA21BA21CA21DA21EA218A61FA219A608
:100500001BA61AA6888587FD07C061E00E945708D0
:1005100060E088850E94270881E08B83DF91CF917E
:100520001F91FF90EF90DF90CF900895FC014481E0
:10053000558160E070E0808591850C94760E8F92F5
:100540009F92AF92BF92CF92DF92EF92FF920F9362
:100550001F93CF93DF93FC01828193816817790702
:1005600008F04CC04A01AA24BB24B82DC32ED42EB7
:10057000E52EFF24AC2D922F8781882361F0889E81
:1005800040011124B92DC89E60011124AD2D289F72
:10059000E00111249D2FD584C285E084F184DC1212
:1005A00008C09B01220F331F620F731F6E0D7F1D4A
:1005B00016C0660F771F660F771F6E0D7F1D052F04
:1005C000112722273327EB01CD0DD11D882329F0D8
:1005D000089F90011124232F01C0202F288382859A
:1005E000EB01C80FD11DB8838385EB01C80FD11D66
:1005F000A8838485FB01E80FF11D9083DF91CF91E3
:100600001F910F91FF90EF90DF90CF90BF90AF9030
:100610009F908F900895CF92DF92EF92FF920F9369
:100620001F93CF93DF93CDB7DEB729970FB6F8941A
:10063000DEBF0FBECDBF8C01DC0118968D919C9161
:100640001997892B09F49EC00E949308F801C6846B
:10065000D784E088F188DC01CB018C199D09AE09B3
:10066000BF09C297A105B10578F3F89484819581FB
:100670009A8389830084F185E02D7F01BFEFEB1A17
:10068000FB0A80818987F80190810288F389E02D37
:10069000D80154968C91992309F430C09081982BFD
:1006A00098879081809589238F838F818C8388E0C0
:1006B0008B8358856F8149853B812C8189819A8103
:1006C000D701508347FD252F3A952083262F39F0F7
:1006D000441F00C000006083000000C0F2CF38E07B
:1006E0004D9160830000019761F7D8015396FC9308
:1006F000EE93529749873B832C833AC09081982B85
:1007000098879081809589238F838F818E8388E05D
:100710008D8358856F8149853D812E8189819A819C
:10072000D701508347FD252F00C000C0208300C0A3
:1007300000C000C000C000C060830000262F3A95B2
:1007400041F0441F000000C000C000C000C000C055
:10075000E8CF38E04D9100C0608300C0019709F7F1
:10076000D8015396FC93EE93529749873D832E838D
:100770009A83898378940E949308F8016687778723
:10078000808B918B29960FB6F894DEBF0FBECDBF3C
:10079000DF91CF911F910F91FF90EF90DF90CF905D
:1007A00008952F923F924F925F926F927F928F9215
:1007B0009F92AF92BF92CF92DF92EF92FF920F93F0
:1007C0001F93CF93DF93EC011B01612C712C412C03
:1007D000512C7C0122E0E20EF11C88248A94982C92
:1007E000A12CB12C0FE1D1018D919C914816590695
:1007F00008F06DC0D1011496ED91FC911597E60DAE
:10080000F71D1281238180819181009731F0029739
:1008100009F056C0188F298F53C029851A3020F14E
:100820001A502F3109F442C0CA84DB84215039F0B8
:10083000622F70E08FEF9EE10E94020D02C060E027
:1008400070E0F6012E813F81CF018C199D0982173E
:10085000930740F42081269FC001279F900D11240B
:100860009193F0CF098722C0222301F1CA84DB844F
:10087000215041F030E040E050E0C501B4010E9459
:10088000160D02C020E030E0F6014E815F81CF01FD
:100890008C199D098417950740F44081429FC0013F
:1008A000439F900D11249193F0CF1986C7010E94A8
:1008B0000B038F89811721F01F8BC7010E949602BD
:1008C000BFEF4B1A5B0AE4E06E0E711C8CCF8F8970
:1008D000813009F45DC020F0823009F4A7C013C153
:1008E0008EA1882331F10E94F2080AA11BA12CA13C
:1008F0003DA1DC01CB01801B910BA20BB30B0B972D
:10090000A105B10508F4FFC08E010E5F1F4FC8019D
:100910000E9496026FA178A58C819D81019768172E
:10092000790711F41EA22AC06F5F7F4F78A76FA3CB
:100930001EC00E94F2080AA11BA12CA13DA1DC014E
:10094000CB01801B910BA20BB30B893E9340A105F9
:10095000B10508F4D8C081E08EA318A61FA28E01AD
:100960000E5F1F4FC8010E9496026FA178A526E96D
:1009700036E946E950E0C8010E949F02C8010E9482
:100980000B030E94F2086AA37BA38CA39DA3BBC0A8
:10099000488D598D88A199A184179507B8F466E907
:1009A00076E9CE01DF91CF911F910F91FF90EF90EB
:1009B000DF90CF90BF90AF909F908F907F906F907F
:1009C0005F904F903F902F900C94FE080E8D1F8DDE
:1009D0002A8D3B8D6C817D81CE010E948F016E013D
:1009E000F2E0CF0ED11C2C813D812817390710F081
:1009F0007C0101C0790100E010E08C819D81081725
:100A0000190790F40E151F052CF420E036E940E09C
:100A100050E003C020E030E0A901B801C6010E9407
:100A20009F020F5F1F4FE9CFC60159C0488D598DF6
:100A300088A199A18417950708F4B1CF8C819D8175
:100A4000BC017695679580FF02C06F5F7F4F0E8D6A
:100A50001F8D2C8D3D8DCE010E948F015C017E018A
:100A600022E0E20EF11C8C819D816C01D694C7942A
:100A700080FF03C08FEFC81AD80A00E010E00C1501
:100A80001D0564F50A151B059CF420E036E940E0DD
:100A900050E0B801C7010E949F026C817D816150C6
:100AA0007109601B710B20E036E940E050E010C096
:100AB00020E030E0A901B801C7010E949F026C81CB
:100AC0007D8161507109601B710B20E030E0A9014C
:100AD000C7010E949F020F5F1F4FD1CFC701DF9157
:100AE000CF911F910F91FF90EF90DF90CF90BF902B
:100AF000AF909F908F907F906F905F904F903F90BE
:100B00002F900C940B03DF91CF911F910F91FF90C9
:100B1000EF90DF90CF90BF90AF909F908F907F909D
:100B20006F905F904F903F902F900895AF92BF923B
:100B3000CF92DF92EF92FF920F931F93CF93DF93A9
:100B4000EC017B010A811B818881998108171907B3
:100B500009F50115110521F0C801880F991F02C080
:100B600081E090E09B838A83880F991F880F991FEB
:100B70000E943B0D6C01AC80BD80A801440F551F45
:100B8000440F551FB5010E946D0EC5010E94D00D86
:100B9000DD82CC82EC81FD81888199819C012F5F6F
:100BA0003F4F39832883880F991F880F991FE80FBB
:100BB000F91FE70188819981AA81BB818083918394
:100BC000A283B383DF91CF911F910F91FF90EF909C
:100BD000DF90CF90BF90AF900895E2E6F1E0A0895A
:100BE000B18982E08C93A485B5851C92A685B785D2
:100BF0008FEC8C93108EA489B58986E08C93A289A2
:100C0000B3898C9180618C93A289B3898C9188601F
:100C10008C93A289B3898C9180688C930288F38924
:100C2000E02D80818F7D80830895CF92DF92EF92B7
:100C3000FF920F931F93CF93DF936C017A018B0187
:100C4000C0E0D0E0CE15DF0589F0D8016D918D01AF
:100C5000D601ED91FC910190F081E02DC60109953E
:100C6000892B11F47E0102C02196ECCFC701DF91E0
:100C7000CF911F910F91FF90EF90DF90CF9008954B
:100C8000FC01918D828D981761F0828DDF01A80F94
:100C9000B11D5D968C91928D9F5F9F73928F90E0B6
:100CA00008958FEF9FEF0895FC01918D828D981725
:100CB00031F0828DE80FF11D858D90E008958FEF62
:100CC0009FEF0895FC01918D228D892F90E0805C2B
:100CD0009F4F821B91098F739927089582E691E0B7
:100CE0000E94620621E0892B09F420E0822F0895FA
:100CF000FC01848DDF01A80FB11DA35ABF4F2C91B9
:100D0000848D90E001968F739927848FA689B78987
:100D10002C93A089B1898C9180648C93938D848D60
:100D2000981306C00288F389E02D80818F7D80832F
:100D30000895EF92FF920F931F93CF93DF93EC01EF
:100D400081E0888F9B8D8C8D981305C0E889F98987
:100D5000808185FD24C0F62E0B8D10E00F5F1F4FA4
:100D60000F731127E02E8C8DE8120CC00FB607FC14
:100D7000FACFE889F989808185FFF5CFCE010E94FD
:100D80007806F1CF8B8DFE01E80FF11DE35AFF4F7E
:100D9000F0820B8FEA89FB898081806207C0EE892F
:100DA000FF896083E889F98980818064808381E09C
:100DB00090E0DF91CF911F910F91FF90EF900895F8
:100DC000CF93DF93EC01888D8823C9F0EA89FB89F2
:100DD000808185FD05C0A889B9898C9186FD0FC0E9
:100DE0000FB607FCF5CF808185FFF2CFA889B989BE
:100DF0008C9185FFEDCFCE010E947806E7CFDF9181
:100E0000CF91089580E090E0892B29F00E946E0632
:100E100081110C94000008950E94680E61157105FF
:100E200079F0FB0101900020E9F73197AF01461BF3
:100E3000570BDC01ED91FC910280F381E02D0994C8
:100E400080E090E008954F925F926F927F92EF92D0
:100E5000FF920F931F93CF93DF93CDB7DEB7A19788
:100E60000FB6F894DEBF0FBECDBF7C01FA01CB01F7
:100E700019A2223008F42AE08E010F5D1F4F422E86
:100E8000512C612C712CBF01A30192010E947D0E97
:100E9000F901CA01015011096A3014F4605D01C002
:100EA000695CD8016C93232B242B252B61F7B801A7
:100EB000C7010E940E07A1960FB6F894DEBF0FBEC1
:100EC000CDBFDF91CF911F910F91FF90EF907F9059
:100ED0006F905F904F900895CF92DF92EF92FF92C4
:100EE000CF93DF936C01990FEE08FF08F7FE21C046
:100EF000E0916201F09163010190F081E02D6DE2DB
:100F000082E691E00995EC0144275527BA014C1976
:100F10005D096E097F092AE082E691E00E942307BD
:100F20008C0F9D1FDF91CF91FF90EF90DF90CF90BE
:100F300008952AE0B701A60182E691E0DF91CF9102
:100F4000FF90EF90DF90CF900C9423071F920F92A9
:100F50000FB60F9211242F933F934F935F936F938C
:100F60007F938F939F93AF93BF93EF93FF9382E60B
:100F700091E00E947806FF91EF91BF91AF919F9110
:100F80008F917F916F915F914F913F912F910F9032
:100F90000FBE0F901F9018951F920F920FB60F92D1
:100FA00011242F938F939F93EF93FF93E0917201FE
:100FB000F09173018081E0917801F091790182FDD7
:100FC00012C0908180917B018F5F8F7320917C0193
:100FD000821751F0E0917B01F0E0EE59FE4F958FC2
:100FE00080937B0101C08081FF91EF919F918F9150
:100FF0002F910F900FBE0F901F901895833081F0A6
:1010000028F4813099F08230A1F008958730A9F05A
:101010008830B9F08430D1F4809180008F7D03C096
:10102000809180008F7780938000089584B58F77BA
:1010300002C084B58F7D84BD08958091B0008F7704
:1010400003C08091B0008F7D8093B00008951F93FE
:10105000CF93DF93282F30E0F901E255FF4F8491C1
:10106000F901E656FF4FD491F901EA57FF4FC491B9
:10107000CC23C9F0162F81110E94FE07EC2FF0E05F
:10108000EE0FFF1FE458FF4FA591B4918FB7F8946E
:10109000111105C09C91ED2FE095E92302C0EC9160
:1010A000ED2BEC938FBFDF91CF911F910895CF93DC
:1010B000DF9390E0FC01E656FF4F2491FC01EA57D4
:1010C000FF4F8491882361F190E0880F991FFC0104
:1010D000EE58FF4FC591D491FC01E458FF4FA59104
:1010E000B491611109C09FB7F8948881209582233B
:1010F0008883EC912E230BC0623061F49FB7F89483
:101100003881822F809583238883EC912E2B2C931A
:101110009FBF06C08FB7F894E8812E2B28838FBF1E
:10112000DF91CF9108953FB7F89480918B02909111
:101130008C02A0918D02B0918E0226B5A89B05C0AD
:101140002F3F19F00196A11DB11D3FBFBA2FA92F46
:10115000982F8827820F911DA11DB11DBC01CD01C3
:1011600042E0660F771F881F991F4A95D1F70895AF
:101170008F929F92AF92BF92CF92DF92EF92FF92A7
:101180006B017C010E9493084B015C01C114D104E6
:10119000E104F104F1F00E949308DC01CB0188190D
:1011A0009909AA09BB09883E9340A105B10570F3CE
:1011B00021E0C21AD108E108F10888EE880E83E028
:1011C000981EA11CB11CC114D104E104F10419F74B
:1011D000DDCFFF90EF90DF90CF90BF90AF909F90CA
:1011E0008F9008952FB7F8946091870270918802CC
:1011F0008091890290918A022FBF08958F929F92C9
:10120000AF92BF92CF92DF92EF92FF920F931F9314
:10121000CF93DF93EC017B0189A5882371F00E94B5
:10122000F2082AA53BA5DC01CB01821B930BA10987
:10123000B109C397A105B10570F589A5811134C025
:101240000E94F2082AA53BA5DC01CB01821B930B6F
:10125000A109B109C397A105B10530F100E010E083
:101260006E0182E0C80ED11C4701A12CB12C8C81EB
:101270009D810817190748F4A5019401B801C6011A
:101280000E949F020F5F1F4FF2CFC6010E940B0307
:1012900081E089A705C0CE0102960E94960219A698
:1012A0000E94F2087BA76AA7DF91CF911F910F914F
:1012B000FF90EF90DF90CF90BF90AF909F908F9076
:1012C00008958F929F92AF92BF92CF92DF92EF924A
:1012D000FF920F931F93CF93DF93EC017B018A0161
:1012E0008A818823A9F00E94F2088C809D80AE80BC
:1012F000BF80AB01BC01481959096A097B09C701C4
:10130000FF0CAA0BBB0B84179507A607B707F8F0CD
:101310008A81811127C00E94F208CC80DD80EE8096
:10132000FF80DC01CB018C199D09AE09BF09012E9C
:10133000000C220B330B081719072A073B0790F400
:1013400061E08B810E94270881E08A8305C060E00C
:101350008B810E9427081A820E94F2086C837D8389
:101360008E839F83DF91CF911F910F91FF90EF901C
:10137000DF90CF90BF90AF909F908F900895CF93C4
:10138000DF93A0E0B0E040E050E0FB01208131813C
:1013900042175307C8F4EB01EC81FD81EA0FFB1FF4
:1013A000228133810190F081E02DEF2B49F42A3026
:1013B000310524F02A50FC01208702C0EC01288767
:1013C0004F5F5F4F1496E1CFEC012885213079F013
:1013D00048F0223089F02330B9F44EE150E06EE15C
:1013E00070E00EC040ED57E062E370E009C046E9EE
:1013F00050E066E970E004C046E950E068EE73E052
:10140000DF91CF910C946109DF91CF9108951F92E4
:101410000F920FB60F9211242F933F938F939F93A8
:10142000AF93BF938091870290918802A091890227
:10143000B0918A023091860223E0230F2D3720F4E9
:101440000196A11DB11D05C026E8230F0296A11D1E
:10145000B11D209386028093870290938802A09307
:101460008902B0938A0280918B0290918C02A091A4
:101470008D02B0918E020196A11DB11D80938B0249
:1014800090938C02A0938D02B0938E02BF91AF9186
:101490009F918F913F912F910F900FBE0F901F90B2
:1014A0001895CF93DF93CEE0D1E0D0930902C0939B
:1014B00008028AE092E00E94FC01D0933502C093BA
:1014C000340286E392E00E94FC01809184029091B4
:1014D0008502DF91CF910C94D00DCF9310926501CE
:1014E0001092640188EE93E0A0E0B0E08093660182
:1014F00090936701A0936801B093690184E191E042
:10150000909363018093620185EC90E090936F016A
:1015100080936E0184EC90E0909371018093700150
:1015200080EC90E0909373018093720181EC90E0E5
:10153000909375018093740182EC90E09093770111
:101540008093760186EC90E0909379018093780106
:1015500010927B0110927C0110927D0110927E010D
:101560001092990210929A0210929B0210929C0281
:1015700010929D0210929E0210929F021092A00261
:101580001092A1021092A2021092A3021092A40241
:101590001092A5021092A6021092A7021092A80221
:1015A00010928102109280021092830210928202A5
:1015B000109285021092840288E391E09093610278
:1015C0008093600286E08093620260E00E94570888
:1015D000C1E0C093650284E690E09093710280932D
:1015E00070020E94F20860936C0270936D02809307
:1015F0006E0290936F02C093630261E08091620279
:101600000E9427081092640280916302811102C037
:10161000C0936402109273021092720210927502CB
:101620001092740210927702109276021092790250
:101630001092780210927B0210927A0281E08093DD
:101640007C0220E331E0309361022093600210922B
:101650007D0280937E0210927F0249E068E070E094
:1016600084E392E00E9410024AE06BE070E088E0C0
:1016700092E00E94100284E291E090930002809335
:10168000FF011092030210920402109205021092C0
:101690000602109207028DE08093020261E00E9430
:1016A000570860E0809102020E9427081092010210
:1016B000CF910895CF93DF93CDB7DEB72A970FB6BA
:1016C000F894DEBF0FBECDBF789484B5826084BD30
:1016D00084B5816084BD85B5826085BD85B5816036
:1016E00085BD80916E00816080936E0010928100B4
:1016F000809181008260809381008091810081606F
:10170000809381008091800081608093800080912F
:10171000B10084608093B1008091B00081608093BB
:10172000B00080917A00846080937A0080917A0082
:10173000826080937A0080917A00816080937A0041
:1017400080917A00806880937A001092C100109294
:10175000D7021092D8021092D9021092DA02109297
:10176000950210929602109297021092980260EDE4
:1017700077E080E090E00E94B80882E691E09093E4
:10178000D6028093D5020E94ED050E94F208609374
:10179000950270939602809397029093980269E461
:1017A00071E08091D5029091D6020E940E076AE006
:1017B00070E080E090E00E94B80881E08093A90288
:1017C0000E94ED056BE571E082E691E00E940E0754
:1017D00068E571E082E691E00E940E0710924F02E8
:1017E00010924E028CE49DE190935302809352023A
:1017F0002CEA3DE030935102209350029093550221
:1018000080935402109223021092220280E797E103
:10181000909327028093260284E991E19093250218
:101820008093240284E699E1909329028093280210
:1018300080918202909183022091800230918102F6
:101840008217930709F56C01CC0CDD1C892B11F074
:10185000C60102C081E090E09093830280938202EF
:10186000880F991F0E943B0D8C01E0908402F0903C
:101870008502A601B7010E946D0EC7010E94D00D1E
:101880001093850200938402E0918402F091850216
:1018900080918002909181029C012F5F3F4F309395
:1018A000810220938002880F991FE80FF91F80E6BC
:1018B00092E09183808302E010E01A8219821C82F8
:1018C0001B821E821D82E12CF12C8091800290915E
:1018D0008102E816F90698F56701CC0CDD1CE09151
:1018E0008402F0918502EC0DFD1D80819181DC0167
:1018F000ED91FC910190F081E02D09955C018091C2
:10190000840290918502FC01EC0DFD1D8081918186
:10191000DC01ED91FC910280F381E02D0995B88600
:10192000AF8290E09A878987BE01695F7F4FCE01C1
:1019300001960E949605BFEFEB1AFB0AC6CF0E94E4
:10194000F208C0908F02D0909002E0909102F09047
:101950009202DC01CB018C199D09AE09BF094097A9
:10196000A105B10520F12091000130910101809184
:10197000020190910301820F931F909303018093C2
:101980000201885E93408137974138F03195219567
:10199000310930930101209300010E94F208609305
:1019A0008F027093900280939102909392028091A3
:1019B00002019091030118870F839A878987BE01DE
:1019C000695F7F4FCE0101960E949605BE016F5F51
:1019D0007F4F8FEF91E00E94BF09BE016F5F7F4F85
:1019E00084E392E00E94D103BE016F5F7F4F88E0E5
:1019F00092E00E94D1038D819E810E94D00D0E94B1
:101A000002075BCFAA1BBB1B51E107C0AA1FBB1F6C
:101A1000A617B70710F0A61BB70B881F991F5A957A
:101A2000A9F780959095BC01CD010895052E97FBEF
:101A30001EF400940E942D0D57FD07D00E947D0ECC
:101A400007FC03D04EF40C942D0D50954095309525
:101A500021953F4F4F4F5F4F08959095809570951A
:101A600061957F4F8F4F9F4F0895EE0FFF1F059099
:101A7000F491E02D0994CF93DF938230910510F417
:101A800082E090E0E091DD02F091DE0220E030E0C3
:101A9000C0E0D0E0309711F14081518148175907DB
:101AA000C0F04817590761F482819381209719F09B
:101AB0009B838A832BC09093DE028093DD0226C035
:101AC0002115310519F04217530718F49A01BE0188
:101AD000DF01EF010280F381E02DDCCF211531051C
:101AE00009F1281B390B2430310590F412968D91A1
:101AF0009C9113976115710521F0FB0193838283FB
:101B000004C09093DE028093DD02FD01329644C052
:101B1000FD01E20FF31F81939193225031092D9320
:101B20003C933AC02091DB023091DC02232B41F43C
:101B300020910601309107013093DC022093DB02F3
:101B400020910401309105012115310541F42DB793
:101B50003EB74091080150910901241B350BE091DB
:101B6000DB02F091DC02E217F307A0F42E1B3F0B1F
:101B70002817390778F0AC014E5F5F4F24173507FF
:101B800048F04E0F5F1F5093DC024093DB028193BD
:101B9000919302C0E0E0F0E0CF01DF91CF91089592
:101BA0000F931F93CF93DF93009709F48CC0FC0130
:101BB0003297138212820091DD021091DE0201152C
:101BC000110581F420813181820F931F2091DB0266
:101BD0003091DC022817390779F5F093DC02E093A5
:101BE000DB0271C0D80140E050E0AE17BF0750F4EF
:101BF00012962D913C911397AD012115310509F1F4
:101C0000D901F3CF9D01DA01338322836081718191
:101C1000860F971F8217930769F4EC012881398199
:101C2000260F371F2E5F3F4F318320838A819B8190
:101C300093838283452B29F4F093DE02E093DD0247
:101C400042C01396FC93EE931297ED01499159917E
:101C50009E01240F351FE217F30771F480819181F3
:101C6000840F951F029611969C938E938281938187
:101C700013969C938E931297E0E0F0E0D8011296B1
:101C80008D919C911397009719F0F8018C01F6CF74
:101C90008D919C9198012E5F3F4F820F931F209151
:101CA000DB023091DC022817390769F4309729F4F8
:101CB0001092DE021092DD0202C013821282109393
:101CC000DC020093DB02DF91CF911F910F91089509
:101CD00081E090E0F8940C949F0EFB01DC0102C0BF
:101CE00001900D9241505040D8F70895DC0101C099
:101CF0006D9341505040E0F70895A1E21A2EAA1BBF
:101D0000BB1BFD010DC0AA1FBB1FEE1FFF1FA217AB
:101D1000B307E407F50720F0A21BB30BE40BF50BA8
:101D2000661F771F881F991F1A9469F76095709531
:101D3000809590959B01AC01BD01CF01089510E005
:101D4000C2E6D0E004C0FE010E94350D2196C336E4
:081D5000D107C9F7F894FFCF99
:101D58001400E8030000DF02800000000000D10347
:101D68000000000099061506620640065406E006C3
:101D780000000000BF09000000000C070000000080
:101D88008D009000000000000C070C07202F200099
:101D9800203A2000206F662000564D4450565F318F
:101DA8007C315F564D4450560D0A0053746172746D
:021DB800000029
:00000001FF
