:100000000C9462000C948A000C948A000C948A0070
:100010000C948A000C948A000C948A000C948A0038
:100020000C948A000C948A000C948A000C948A0028
:100030000C948A000C948A000C948A000C948A0018
:100040000C94C9040C948A000C9497040C947104C9
:100050000C948A000C948A000C948A000C948A00F8
:100060000C948A000C948A000000000023002600F3
:10007000290000000008000201000003040700003E
:1000800000000000000000000000250028002B00F8
:1000900000000000240027002A00040404040404D3
:1000A0000404020202020202030303030303010227
:1000B00004081020408001020408102001020408F6
:1000C0001020130511241FBECFEFD8E0DEBFCDBF37
:1000D00011E0A0E0B1E0E2E9F1E102C005900D928B
:1000E000A434B107D9F722E0A4E4B1E001C01D9225
:1000F000AA33B207E1F710E0C2E6D0E004C02197CE
:10010000FE010E946407C136D107C9F70E940906A3
:100110000C94C7080C940000EDE4F1E0A089B189CB
:1001200082E08C93A485B5851C92A685B7858FEC5B
:100130008C93108EA489B58986E08C93A289B389AB
:100140008C9180618C93A289B3898C9188608C9307
:10015000A289B3898C9180688C930288F389E02D01
:1001600080818F7D80830895CF92DF92EF92FF92FE
:100170000F931F93CF93DF936C017A018B01C0E043
:10018000D0E0CE15DF0589F0D8016D918D01D60143
:10019000ED91FC910190F081E02DC6010995892B2C
:1001A00011F47E0102C02196ECCFC701DF91CF91FF
:1001B0001F910F91FF90EF90DF90CF900895FC0179
:1001C000918D828D981761F0828DDF01A80FB11D8E
:1001D0005D968C91928D9F5F9F73928F90E00895B2
:1001E0008FEF9FEF0895FC01918D828D981731F06C
:1001F000828DE80FF11D858D90E008958FEF9FEFC0
:100200000895FC01918D228D892F90E0805C9F4F95
:10021000821B91098F73992708958DE491E00E94C4
:10022000010121E0892B09F420E0822F0895FC01CF
:10023000848DDF01A80FB11DA35ABF4F2C91848D6F
:1002400090E001968F739927848FA689B7892C93A4
:10025000A089B1898C9180648C93938D848D98133F
:1002600006C00288F389E02D80818F7D8083089508
:10027000EF92FF920F931F93CF93DF93EC0181E0F6
:10028000888F9B8D8C8D981305C0E889F9898081B2
:1002900085FD24C0F62E0B8D10E00F5F1F4F0F73EE
:1002A0001127E02E8C8DE8120CC00FB607FCFACF98
:1002B000E889F989808185FFF5CFCE010E94170179
:1002C000F1CF8B8DFE01E80FF11DE35AFF4FF08255
:1002D0000B8FEA89FB898081806207C0EE89FF89E4
:1002E0006083E889F98980818064808381E090E07F
:1002F000DF91CF911F910F91FF90EF900895CF93D1
:10030000DF93EC01888D8823C9F0EA89FB8980811D
:1003100085FD05C0A889B9898C9186FD0FC00FB6EF
:1003200007FCF5CF808185FFF2CFA889B9898C9130
:1003300085FFEDCFCE010E941701E7CFDF91CF916E
:10034000089580E090E0892B29F00E940D01811131
:100350000C9400000895833081F028F4813099F0E6
:100360008230A1F008958730A9F08830B9F0843048
:10037000D1F4809180008F7D03C0809180008F77C1
:1003800080938000089584B58F7702C084B58F7DF7
:1003900084BD08958091B0008F7703C08091B00034
:1003A0008F7D8093B00008951F93CF93DF93282F04
:1003B00030E0F901EE58FF4F8491F901E255FF4F0B
:1003C000D491F901E656FF4FC491CC23C9F0162F02
:1003D00081110E94AB01EC2FF0E0EE0FFF1FEA57F6
:1003E000FF4FA591B4918FB7F894111105C09C915E
:1003F000ED2FE095E92302C0EC91ED2BEC938FBF3C
:10040000DF91CF911F9108953FB7F89480914901F2
:1004100090914A01A0914B01B0914C0126B5A89B47
:1004200005C02F3F19F00196A11DB11D3FBFBA2F86
:10043000A92F982F8827820F911DA11DB11DBC01E6
:10044000CD0142E0660F771F881F991F4A95D1F7AB
:1004500008958F929F92AF92BF92CF92DF92EF92C8
:10046000FF926B017C010E9404024B015C01C114EC
:10047000D104E104F104F1F00E940402DC01CB019B
:1004800088199909AA09BB09883E9340A105B105BD
:1004900070F321E0C21AD108E108F10888EE880E55
:1004A00083E0981EA11CB11CC114D104E104F10425
:1004B00019F7DDCFFF90EF90DF90CF90BF90AF9016
:1004C0009F908F9008952FB7F89460914501709197
:1004D000460180914701909148012FBF08958F9266
:1004E0009F92AF92BF92CF92DF92EF92FF920F93C3
:1004F0001F93CF93DF93EC017B018A018A818823CC
:10050000A9F00E9463028C809D80AE80BF80AB0109
:10051000BC01481959096A097B09C701FF0CAA0BDC
:10052000BB0B84179507A607B707F8F08A818111DE
:1005300027C00E946302CC80DD80EE80FF80DC015A
:10054000CB018C199D09AE09BF09012E000C220BAD
:10055000330B081719072A073B0790F461E08B81DA
:100560000E94D40181E08A8305C060E08B810E94F3
:10057000D4011A820E9463026C837D838E839F83E1
:10058000DF91CF911F910F91FF90EF90DF90CF906F
:10059000BF90AF909F908F9008954423E9F150E071
:1005A00056954795FB0160E070E064177507ACF461
:1005B000A191B19112962D913C9113970D90BC9100
:1005C000A02DAB2B39F42B3031050CF02A50DC0177
:1005D00018962C936F5F7F4FE8CFFC012085213068
:1005E00059F028F0223069F0233081F0089540ED71
:1005F00057E062E370E00EC046E950E066E970E063
:1006000009C046E950E068EE73E004C04EE150E0F6
:100610006EE170E00C946F02089580E090E0089520
:100620006115710579F0FB0101900020E9F7319720
:10063000AF01461B570BDC01ED91FC910280F38169
:10064000E02D099480E090E00895CF92DF92EF9240
:10065000FF920F931F93CF93DF93EC018C010E5FFA
:100660001F4F8C8180FF02C0826001C08D7F8C8310
:100670002A8130E0F901EE58FF4F8491F901E255EB
:10068000FF4FE490F901E656FF4FF490FF20A1F0F0
:1006900081110E94AB01EF2DF0E0EE0FFF1FE85932
:1006A000FF4FA591B491EC91EE2191E080E009F427
:1006B00090E0292F382F02C020E030E04B8150E03D
:1006C0008C812417350711F48E7F01C081608C83E3
:1006D0008C81282F30E0A90155954795242735278F
:1006E00020FF44C00E946302CC84DD84EE84FF843A
:1006F0002D81222341F06C197D0988899989681719
:10070000790708F45EC00E9463026C877D878E873C
:100710009F878C8180FF13C08A8D9B8D01969B8F54
:100720008A8FEA89FB89309711F0C80109950E94E8
:1007300063026E837F83888799871C8E13C0EC8940
:10074000FD89309711F0C8010995EE89FF8930972E
:1007500011F0C80109958FEF9FEFDC018E839F8315
:10076000A887B9878C8184608C832BC08B7F8C8316
:100770008E819F81A885B9858F3F9F4FAF4FBF4F17
:1007800001F18C8D81111DC00E946302CE80DF803B
:10079000E884F984AB01BC014C195D096E097F093D
:1007A0008A859B85A0E0B0E084179507A607B70768
:1007B00040F4E88DF98D309721F0C801099581E06A
:1007C0008C8F8E819F81A885B9858F3F9F4FAF4FBA
:1007D000BF4FD1F08C8D811117C00E9463020E8132
:1007E0001F8128853985DC01CB01801B910BA20B71
:1007F000B30B8D3D9540A105B10530F081E08C8FA4
:100800009E8D98279E8F8F8F8C8182FF06C080FDE2
:1008100004C08F8D882339F01F8E8D8D9E8D992376
:1008200051F0865F08C08D8D8F5F843010F48D8FFE
:10083000F4CF1D8EF2CFDF91CF911F910F91FF90DA
:10084000EF90DF90CF9008950E949708AF92BF92EB
:10085000CF92DF92EF92FF920F931F93CF93DF938C
:10086000EC017B018A819B81288139818217930762
:10087000D9F45C01AA0CBB1C892B11F0C50102C084
:1008800081E090E09B838A83880F991F0E946A070A
:100890008C01CC80DD80A501B6010E949C08C601B8
:1008A0000E94FF071D830C83EC81FD818881998163
:1008B0009C012F5F3F4F39832883D7012D913C91B5
:1008C000880F991FE80FF91F31832083DF91CF91A3
:1008D0001F910F91FF90EF90DF90CF90BF90AF905E
:1008E00008951F920F920FB60F9211242F933F93EA
:1008F0004F935F936F937F938F939F93AF93BF9328
:10090000EF93FF938DE491E00E941701FF91EF9127
:10091000BF91AF919F918F917F916F915F914F9117
:100920003F912F910F900FBE0F901F9018951F921F
:100930000F920FB60F9211242F938F939F93EF93E3
:10094000FF93E0915D01F0915E018081E091630190
:10095000F091640182FD12C09081809166018F5FE9
:100960008F7320916701821751F0E0916601F0E0EA
:10097000E35BFE4F958F8093660101C08081FF91FC
:10098000EF919F918F912F910F900FBE0F901F901D
:1009900018951F920F920FB60F9211242F933F9329
:1009A0008F939F93AF93BF938091450190914601A0
:1009B000A0914701B09148013091440123E0230FF9
:1009C0002D3720F40196A11DB11D05C026E8230F87
:1009D0000296A11DB11D209344018093450190937F
:1009E0004601A0934701B09348018091490190913D
:1009F0004A01A0914B01B0914C010196A11DB11D7E
:100A00008093490190934A01A0934B01B0934C010C
:100A1000BF91AF919F918F913F912F910F900FBEFA
:100A20000F901F9018951F93CF93DF931092500152
:100A300010924F0188EE93E0A0E0B0E08093510166
:100A400090935201A0935301B09354018AE091E036
:100A500090934E0180934D0185EC90E090935A0164
:100A60008093590184EC90E090935C0180935B014A
:100A700080EC90E090935E0180935D0181EC90E0CA
:100A80009093600180935F0182EC90E0909362010B
:100A90008093610186EC90E0909364018093630100
:100AA000109266011092670110926801109269011C
:100AB0001092F0011092F1011092F2011092F301E4
:100AC0001092F4011092F5011092F6011092F701C4
:100AD0001092F8011092F9011092FA011092FB01A4
:100AE0001092FC011092FD011092FE011092FF0184
:100AF00080E290E00E946A07EC0188E291E099832D
:100B0000888386E08A83E4EBF0E02491E0EAF0E079
:100B100084918823C9F090E0880F991FFC01E05769
:100B2000FF4F45915491FC01EA57FF4FA591B491B5
:100B30009FB7F894FA0180812095822380838C915D
:100B4000E22FE823EC939FBF11E01D8386E490E041
:100B5000998B888B0E9463026C877D878E879F8725
:100B60001B8361E08A810E94D4011C828B818111E8
:100B700001C01C831B8A1A8A1D8A1C8A1F8A1E8A2E
:100B8000198E188E1B8E1A8E81E08C8F80E291E078
:100B9000998388831D8E1E8E1F8ED0933502C0933D
:100BA000340289E090E00E946A07EC018AE191E05A
:100BB000998388831C821D821E821F8218868DE085
:100BC0008B83EBEBF0E08491E7EAF0E024912223C1
:100BD00099F030E0220F331FF901E057FF4FA59144
:100BE000B491F901EA57FF4F259134919FB7F894DA
:100BF000EC91E82BEC939FBF60E08B810E94D401C5
:100C00001A82D0933302C0933202DF91CF911F91A9
:100C10000895CF93DF93CDB7DEB7AD970FB6F894B5
:100C2000DEBF0FBECDBF789484B5826084BD84B52D
:100C3000816084BD85B5826085BD85B5816085BDD7
:100C400080916E00816080936E001092810080918F
:100C50008100826080938100809181008160809317
:100C60008100809180008160809380008091B1003C
:100C700084608093B1008091B00081608093B00067
:100C800080917A00846080937A0080917A008260FB
:100C900080937A0080917A00816080937A008091BD
:100CA0007A00806880937A001092C10010922E0220
:100CB00010922F0210923002109231021092EC0129
:100CC0001092ED011092EE011092EF0160ED77E0CD
:100CD00080E090E00E9429028DE491E090932D0243
:100CE00080932C020E948C000E9463026093EC01AE
:100CF0007093ED018093EE019093EF016CE271E04F
:100D000080912C0290912D020E9410036AE070E005
:100D100080E090E00E94290281E0809300020E941E
:100D20008C006EE371E08DE491E00E9410036BE3B0
:100D300071E08DE491E00E9410031E0188E2280E0C
:100D4000311C3AE0832E912C43E0A42EB12C5AE0C2
:100D5000452E512C612C712C8091340290913502DA
:100D6000DC01ED91FC910280F381E02D0995182FB3
:100D70008091340290913502DC01ED91FC9101905B
:100D8000F081E02D099599A788A7812F90E09BA776
:100D90008AA73DA62CA68091320290913302DC01F5
:100DA000ED91FC910190F081E02D42E0BE01645D87
:100DB0007F4F09951BA21AA21DA21CA21FA21EA250
:100DC0009A828982BE016F5F7F4FCE0182960E9418
:100DD0002604E4E1F0E0FA83E983BE016F5F7F4F10
:100DE000CE0182960E942604BA82A982BE016F5F5C
:100DF0007F4FCE0182960E94260400E010E08AA177
:100E00009BA10817190708F058C0EEA1FFA1C8015F
:100E1000880F991FE80FF91F208131816901330F75
:100E2000EE08FF08F7FE26C0E0914D01F0914E015B
:100E30000190F081E02D6DE28DE491E0099522278B
:100E40003327A9012C193D094E095F0919A2CE01CA
:100E500081967C01CA01B901A30192010E94A508F3
:100E6000605DD7016E937D01211531054105510566
:100E700089F715C0A701960119A2FE01B1967F015D
:100E8000CA01B901A30192010E94A508605DD701C2
:100E90006E937D01211531054105510589F7B70193
:100EA0008DE491E00E9410036BE371E08DE491E02A
:100EB0000E9410030F5F1F4FA2CF8EA19FA10E941F
:100EC000FF070E94A10148CFEE0FFF1F0590F4918C
:100ED000E02D0994CF93DF938230910510F482E0E6
:100EE00090E0E0913802F091390220E030E0C0E07B
:100EF000D0E0309711F14081518148175907C0F077
:100F00004817590761F482819381209719F09B83D8
:100F10008A832BC0909339028093380226C0211512
:100F2000310519F04217530718F49A01BE01DF0189
:100F3000EF010280F381E02DDCCF2115310509F1AD
:100F4000281B390B2430310590F412968D919C9119
:100F500013976115710521F0FB019383828304C00F
:100F60009093390280933802FD01329644C0FD010E
:100F7000E20FF31F81939193225031092D933C93FB
:100F80003AC02091360230913702232B41F4209150
:100F900002013091030130933702209336022091F1
:100FA0000001309101012115310541F42DB73EB703
:100FB0004091040150910501241B350BE09136024C
:100FC000F0913702E217F307A0F42E1B3F0B28170E
:100FD000390778F0AC014E5F5F4F2417350748F0B2
:100FE0004E0F5F1F509337024093360281939193C7
:100FF00002C0E0E0F0E0CF01DF91CF9108950F93C0
:101000001F93CF93DF93009709F48CC0FC013297B4
:1010100013821282009138021091390201151105D4
:1010200081F420813181820F931F2091360230910B
:1010300037022817390779F5F0933702E093360223
:1010400071C0D80140E050E0AE17BF0750F41296CF
:101050002D913C911397AD012115310509F1D9016D
:10106000F3CF9D01DA013383228360817181860F82
:10107000971F8217930769F4EC0128813981260FA5
:10108000371F2E5F3F4F318320838A819B8193835B
:101090008283452B29F4F0933902E093380242C051
:1010A0001396FC93EE931297ED01499159919E018D
:1010B000240F351FE217F30771F480819181840FAB
:1010C000951F029611969C938E938281938113961D
:1010D0009C938E931297E0E0F0E0D80112968D91E8
:1010E0009C911397009719F0F8018C01F6CF8D9120
:1010F0009C9198012E5F3F4F820F931F20913602E3
:10110000309137022817390769F4309729F4109283
:1011100039021092380202C01382128210933702F1
:1011200000933602DF91CF911F910F91089581E0D6
:1011300090E0F8940C94C708FB01DC0102C0019018
:101140000D9241505040D8F70895A1E21A2EAA1BE3
:10115000BB1BFD010DC0AA1FBB1FEE1FFF1FA21767
:10116000B307E407F50720F0A21BB30BE40BF50B64
:10117000661F771F881F991F1A9469F760957095ED
:10118000809590959B01AC01BD01CF010895F89425
:02119000FFCF8F
:1011920000003A028000000000003801B4000101A2
:1011A200DF00F3007F0100000000CD02000000001C
:1011B2000D0325030000000024042404564D44506E
:1011C200565F317C315F564D4450560D0A005374C0
:0411D20061727400D2
:107E0000112484B714BE81FFF0D085E080938100F7
:107E100082E08093C00088E18093C10086E0809377
:107E2000C20080E18093C4008EE0C9D0259A86E02C
:107E300020E33CEF91E0309385002093840096BBD3
:107E4000B09BFECF1D9AA8958150A9F7CC24DD24C4
:107E500088248394B5E0AB2EA1E19A2EF3E0BF2EE7
:107E6000A2D0813461F49FD0082FAFD0023811F036
:107E7000013811F484E001C083E08DD089C08234E0
:107E800011F484E103C0853419F485E0A6D080C0E4
:107E9000853579F488D0E82EFF2485D0082F10E0AE
:107EA000102F00270E291F29000F111F8ED06801E7
:107EB0006FC0863521F484E090D080E0DECF843638
:107EC00009F040C070D06FD0082F6DD080E0C81688
:107ED00080E7D80618F4F601B7BEE895C0E0D1E017
:107EE00062D089930C17E1F7F0E0CF16F0E7DF06D8
:107EF00018F0F601B7BEE89568D007B600FCFDCFD4
:107F0000A601A0E0B1E02C9130E011968C91119780
:107F100090E0982F8827822B932B1296FA010C0160
:107F200087BEE89511244E5F5F4FF1E0A038BF0790
:107F300051F7F601A7BEE89507B600FCFDCF97BE46
:107F4000E89526C08437B1F42ED02DD0F82E2BD052
:107F50003CD0F601EF2C8F010F5F1F4F84911BD097
:107F6000EA94F801C1F70894C11CD11CFA94CF0C13
:107F7000D11C0EC0853739F428D08EE10CD085E9AC
:107F80000AD08FE07ACF813511F488E018D01DD067
:107F900080E101D065CF982F8091C00085FFFCCF94
:107FA0009093C60008958091C00087FFFCCF809118
:107FB000C00084FD01C0A8958091C6000895E0E648
:107FC000F0E098E1908380830895EDDF803219F02E
:107FD00088E0F5DFFFCF84E1DECF1F93182FE3DFCA
:107FE0001150E9F7F2DF1F91089580E0E8DFEE27F6
:047FF000FF270994CA
:027FFE00040479
:0400000300007E007B
:00000001FF