:100000000C9463000C948B000C948B000C948B006C
:100010000C948B000C948B000C948B000C948B0034
:100020000C948B000C948B000C948B000C948B0024
:100030000C948B000C948B000C948B000C948B0014
:100040000C9457070C948B000C9425070C94FF0616
:100050000C948B000C948B000C948B000C948B00F4
:100060000C948B000C948B000000000023002600F1
:10007000290000000000240027002A0000000008DA
:10008000000201000003040700000000000000005F
:10009000010204081020408001020408102001021F
:1000A0000408102000000000250028002B00040494
:1000B0000404040404040202020202020303030310
:1000C0000303A1075B0A11241FBECFEFD8E0DEBFF8
:1000D000CDBF11E0A0E0B1E0E0E4F8E102C005909E
:1000E0000D92AC35B107D9F722E0ACE5B1E001C023
:1000F0001D92AC39B207E1F710E0C2E6D0E004C0CF
:100100002197FE010E94A90AC136D107C9F70E94B2
:1001100000090C94130C0C940000E5E6F1E0A089B2
:10012000B18982E08C93A485B5851C92A685B7859C
:100130008FEC8C93108EA489B58986E08C93A2896C
:10014000B3898C9180618C93A289B3898C918860EA
:100150008C93A289B3898C9180688C930288F389EF
:10016000E02D80818F7D80830895CF92DF92EF9282
:10017000FF920F931F93CF93DF936C017A018B0152
:10018000C0E0D0E0CE15DF0589F0D8016D918D017A
:10019000D601ED91FC910190F081E02DC601099509
:1001A000892B11F47E0102C02196ECCFC701DF91AB
:1001B000CF911F910F91FF90EF90DF90CF90089516
:1001C000FC01918D828D981761F0828DDF01A80F5F
:1001D000B11D5D968C91928D9F5F9F73928F90E081
:1001E00008958FEF9FEF0895FC01918D828D9817F0
:1001F00031F0828DE80FF11D858D90E008958FEF2D
:100200009FEF0895FC01918D228D892F90E0805CF5
:100210009F4F821B91098F739927089585E691E07E
:100220000E94020121E0892B09F420E0822F089529
:10023000FC01848DDF01A80FB11DA35ABF4F2C9183
:10024000848D90E001968F739927848FA689B78952
:100250002C93A089B1898C9180648C93938D848D2B
:10026000981306C00288F389E02D80818F7D8083FA
:100270000895EF92FF920F931F93CF93DF93EC01BA
:1002800081E0888F9B8D8C8D981305C0E889F98952
:10029000808185FD24C0F62E0B8D10E00F5F1F4F6F
:1002A0000F731127E02E8C8DE8120CC00FB607FCDF
:1002B000FACFE889F989808185FFF5CFCE010E94C8
:1002C0001801F1CF8B8DFE01E80FF11DE35AFF4FAE
:1002D000F0820B8FEA89FB898081806207C0EE89FA
:1002E000FF896083E889F98980818064808381E067
:1002F00090E0DF91CF911F910F91FF90EF900895C3
:10030000CF93DF93EC01888D8823C9F0EA89FB89BC
:10031000808185FD05C0A889B9898C9186FD0FC0B3
:100320000FB607FCF5CF808185FFF2CFA889B98988
:100330008C9185FFEDCFCE010E941801E7CFDF91B0
:10034000CF91089580E090E0892B29F00E940E0162
:1003500081110C9400000895833081F028F48130DD
:1003600099F08230A1F008958730A9F08830B9F073
:100370008430D1F4809180008F7D03C08091800013
:100380008F7780938000089584B58F7702C084B5FD
:100390008F7D84BD08958091B0008F7703C08091D8
:1003A000B0008F7D8093B00008951F93CF93DF93AB
:1003B000282F30E0F901E458FF4F8491F901E0570C
:1003C000FF4FD491F901E255FF4FC491CC23C9F0FE
:1003D000162F81110E94AC01EC2FF0E0EE0FFF1FF1
:1003E000EC55FF4FA591B4918FB7F894111105C04A
:1003F0009C91ED2FE095E92302C0EC91ED2BEC935D
:100400008FBFDF91CF911F910895CF93DF9390E03D
:10041000FC01E057FF4F2491FC01E255FF4F84910E
:10042000882361F190E0880F991FFC01EE58FF4F7F
:10043000C591D491FC01EC55FF4FA591B491611188
:1004400009C09FB7F8948881209582238883EC9116
:100450002E230BC0623061F49FB7F8943881822F4D
:10046000809583238883EC912E2B2C939FBF06C00D
:100470008FB7F894E8812E2B28838FBFDF91CF911F
:1004800008953FB7F8948091610190916201A09125
:100490006301B091640126B5A89B05C02F3F19F0F8
:1004A0000196A11DB11D3FBFBA2FA92F982F8827F4
:1004B000820F911DA11DB11DBC01CD0142E0660F4F
:1004C000771F881F991F4A95D1F708958F929F92A1
:1004D000AF92BF92CF92DF92EF92FF926B017C01BD
:1004E0000E9441024B015C01C114D104E104F104FA
:1004F000F1F00E944102DC01CB0188199909AA0997
:10050000BB09883E9340A105B10570F321E0C21AF2
:10051000D108E108F10888EE880E83E0981EA11C3E
:10052000B11CC114D104E104F10419F7DDCFFF902F
:10053000EF90DF90CF90BF90AF909F908F900895F5
:100540002FB7F89460915D0170915E0180915F0119
:10055000909160012FBF08958F929F92AF92BF92AA
:10056000CF92DF92EF92FF920F931F93CF93DF937F
:10057000EC017B018A018A818823A9F00E94A002F4
:100580008C809D80AE80BF80AB01BC0148195909A9
:100590006A097B09C701FF0CAA0BBB0B84179507DF
:1005A000A607B707F8F08A81811127C00E94A00230
:1005B000CC80DD80EE80FF80DC01CB018C199D09B1
:1005C000AE09BF09012E000C220B330B08171907C7
:1005D0002A073B0790F461E08B810E94D50181E0FE
:1005E0008A8305C060E08B810E94D5011A820E9437
:1005F000A0026C837D838E839F83DF91CF911F91B7
:100600000F91FF90EF90DF90CF90BF90AF909F90B1
:100610008F900895CF93DF93A0E0B0E040E050E0EA
:10062000FB012081318142175307C8F4EB01EC81B3
:10063000FD81EA0FFB1F228133810190F081E02DC3
:10064000EF2B49F42A30310524F02A50FC01208791
:1006500002C0EC0128874F5F5F4F1496E1CFEC0199
:100660002885213079F048F0223089F02330B9F420
:100670004EE150E06EE170E00EC040ED57E062E305
:1006800070E009C046E950E066E970E004C046E960
:1006900050E068EE73E0DF91CF910C94AC02DF91F3
:1006A000CF91089580E090E008958F929F92AF924D
:1006B000BF92CF92DF92EF92FF920F931F93CF934F
:1006C000DF93FC014A01AA24BB24B82DC32ED42EEB
:1006D000E52EFF24AC2D922F8781882361F0889E20
:1006E00040011124B92DC89E60011124AD2D289F11
:1006F000E00111249D2FD584C285E084F184DC12B1
:1007000008C09B01220F331F620F731F6E0D7F1DE8
:1007100016C0660F771F660F771F6E0D7F1D052FA2
:10072000112722273327EB01CD0DD11D882329F076
:10073000089F90011124232F01C0202F2883828538
:10074000EB01C80FD11DB8838385EB01C80FD11D04
:10075000A8838485FB01E80FF11D9083DF91CF9181
:100760001F910F91FF90EF90DF90CF90BF90AF90CF
:100770009F908F900895CF92DF92EF92FF920F9308
:100780001F93CF93DF93CDB7DEB729970FB6F894B9
:10079000DEBF0FBECDBF8C01DC0118968D919C9100
:1007A0001997892B09F49EC00E944102F801C68462
:1007B000D784E088F188DC01CB018C199D09AE0952
:1007C000BF09C297A105B10578F3F894848195819A
:1007D0009A8389830084F185E02D7F01BFEFEB1AB6
:1007E000FB0A80818987F80190810288F389E02DD6
:1007F000D80154968C91992309F430C09081982B9C
:1008000098879081809589238F838F818C8388E05E
:100810008B8358856F8149853B812C8189819A81A1
:10082000D701508347FD252F3A952083262F39F095
:10083000441F00C000006083000000C0F2CF38E019
:100840004D9160830000019761F7D8015396FC93A6
:10085000EE93529749873B832C833AC09081982B23
:1008600098879081809589238F838F818E8388E0FC
:100870008D8358856F8149853D812E8189819A813B
:10088000D701508347FD252F00C000C0208300C042
:1008900000C000C000C000C060830000262F3A9551
:1008A00041F0441F000000C000C000C000C000C0F4
:1008B000E8CF38E04D9100C0608300C0019709F790
:1008C000D8015396FC93EE93529749873D832E832C
:1008D0009A83898378940E944102F801668777871A
:1008E000808B918B29960FB6F894DEBF0FBECDBFDB
:1008F000DF91CF911F910F91FF90EF90DF90CF90FC
:100900000895CF92DF92EF92FF920F931F93CF93B0
:10091000DF93EC018C010E5F1F4F8C8180FF02C0C2
:10092000826001C08D7F8C832A8130E0F901E45818
:10093000FF4F8491F901E057FF4FE490F901E25530
:10094000FF4FF490FF20A1F081110E94AC01EF2D28
:10095000F0E0EE0FFF1FE859FF4FA591B491EC9125
:10096000EE2191E080E009F490E0292F382F02C0B9
:1009700020E030E04B8150E08C812417350711F4E2
:100980008E7F01C081608C838C81282F30E0A9018B
:10099000559547952427352720FF44C00E94A00283
:1009A000CC84DD84EE84FF842D81222341F06C19F8
:1009B0007D09888999896817790708F45EC00E94C3
:1009C000A0026C877D878E879F878C8180FF13C0F4
:1009D0008A8D9B8D01969B8F8A8FEA89FB89309740
:1009E00011F0C80109950E94A0026E837F83888759
:1009F00099871C8E13C0EC89FD89309711F0C801CE
:100A00000995EE89FF89309711F0C80109958FEF9C
:100A10009FEFDC018E839F83A887B9878C818460D8
:100A20008C832BC08B7F8C838E819F81A885B98519
:100A30008F3F9F4FAF4FBF4F01F18C8D81111DC074
:100A40000E94A002CE80DF80E884F984AB01BC0163
:100A50004C195D096E097F098A859B85A0E0B0E08D
:100A600084179507A607B70740F4E88DF98D3097EE
:100A700021F0C801099581E08C8F8E819F81A88526
:100A8000B9858F3F9F4FAF4FBF4FD1F08C8D8111F4
:100A900017C00E94A0020E811F8128853985DC01C4
:100AA000CB01801B910BA20BB30B8D3D9540A10593
:100AB000B10530F081E08C8F9E8D98279E8F8F8FAF
:100AC0008C8182FF06C080FD04C08F8D882339F0A1
:100AD0001F8E8D8D9E8D992351F0865F08C08D8D60
:100AE0008F5F843010F48D8FF4CF1D8EF2CFDF91A5
:100AF000CF911F910F91FF90EF90DF90CF900895CD
:100B00006115710579F0FB0101900020E9F731973B
:100B1000AF01461B570BDC01ED91FC910280F38184
:100B2000E02D099480E090E008952F923F924F923B
:100B30005F926F927F928F929F92AF92BF92CF926D
:100B4000DF92EF92FF920F931F93CF93DF93CDB776
:100B5000DEB7A1970FB6F894DEBF0FBECDBF8C01F4
:100B60002B01E12CF12C612C712C88248A94982C77
:100B7000A12CB12C180122E0220E311CD2018D9142
:100B80009C916816790608F06EC0D2011496ED911A
:100B9000FC911597EE0DFF1D82819381208131819B
:100BA000232B09F059C0F80121858A30910564F1A1
:100BB0008A50878B2F3121F1C284D384215039F0A0
:100BC000622F70E08FEF9EE10E94760A02C060E023
:100BD00070E0F601D80116962D913C911797CF0140
:100BE0008C199D098217930740F42081269FC0012C
:100BF000279F900D11249193EDCFEFE11996EC937F
:100C0000C1010E94BB0328C0878B2223C9F3C28481
:100C1000D384215041F030E040E050E0C501B40100
:100C20000E948A0A02C020E030E0F601D801169640
:100C30004D915C911797CF018C199D0984179507E9
:100C400040F44081429FC001439F900D1124919335
:100C5000EDCF19961C92D4CFBFEF6B1A7B0AE4E05C
:100C6000EE0EF11C8BCF62E371E085E691E00E940D
:100C70008005F801278930E040E050E019A27E01AC
:100C8000F1E2EF0EF11C8AE0882E912CA12CB12C00
:100C9000CA01B901A50194010E94F10B605DD70161
:100CA0006E937D01211531054105510589F7BD017F
:100CB00085E691E00E94800562E571E085E691E0BD
:100CC0000E948005F801878981117EC0848D882368
:100CD000A1F10E94A002D8015896CD90DD90ED9030
:100CE000FC905B97DC01CB018C199D09AE09BF0913
:100CF0000B97A105B10508F467C07801B2E0EB0ECF
:100D0000F11CF8014681578160E070E0828593858F
:100D10000E94EA0BD8015D966D917C915E976830D8
:100D2000710519F45C961C9245C06F5F7F4FD80126
:100D30005E967C936E935D972FC00E94A002D801AF
:100D40005896CD90DD90ED90FC905B97DC01CB0147
:100D50008C199D09AE09BF09893E9340A105B105D3
:100D600098F181E0D8015C968C935C975E961C921A
:100D70001E925D977801B2E0EB0EF11CF8014681FE
:100D8000578160E070E0828593850E94EA0BD8016C
:100D90005D966D917C915E9714968D919C911597BF
:100DA0006817790738F426E936E946E950E0C701C3
:100DB0000E945503C7010E94BB030E94A002F801D4
:100DC000608F718F828F938FA1960FB6F894DEBFDC
:100DD0000FBECDBFDF91CF911F910F91FF90EF908C
:100DE000DF90CF90BF90AF909F908F907F906F904B
:100DF0005F904F903F902F9008950E94DC0B1F92C0
:100E00000F920FB60F9211242F933F934F935F933E
:100E10006F937F938F939F93AF93BF93EF93FF93C2
:100E200085E691E00E941801FF91EF91BF91AF918B
:100E30009F918F917F916F915F914F913F912F91F2
:100E40000F900FBE0F901F9018951F920F920FB624
:100E50000F9211242F938F939F93EF93FF93E09121
:100E60007501F09176018081E0917B01F0917C0128
:100E700082FD12C0908180917E018F5F8F732091DF
:100E80007F01821751F0E0917E01F0E0EB59FE4FB7
:100E9000958F80937E0101C08081FF91EF919F919A
:100EA0008F912F910F900FBE0F901F9018951F924A
:100EB0000F920FB60F9211242F933F938F939F930E
:100EC000AF93BF9380915D0190915E01A0915F010E
:100ED000B091600130915C0123E0230F2D3720F4A5
:100EE0000196A11DB11D05C026E8230F0296A11D84
:100EF000B11D20935C0180935D0190935E01A093EE
:100F00005F01B09360018091610190916201A091B5
:100F10006301B09164010196A11DB11D809361012F
:100F200090936201A0936301B0936401BF91AF916C
:100F30009F918F913F912F910F900FBE0F901F9017
:100F40001895CF93109268011092670188EE93E094
:100F5000A0E0B0E08093690190936A01A0936B01D7
:100F6000B0936C018AE091E09093660180936501F3
:100F700085EC90E0909372018093710184EC90E095
:100F8000909374018093730180EC90E090937601CC
:100F90008093750181EC90E09093780180937701C4
:100FA00082EC90E090937A018093790186EC90E056
:100FB00090937C0180937B0110927E0110927F01BF
:100FC0001092800110928101109208021092090281
:100FD00010920A0210920B0210920C0210920D0253
:100FE00010920E0210920F02109210021092110233
:100FF0001092120210921302109214021092150213
:1010000010921602109217021092930210929202FE
:1010100010929502109294021092970210929602EA
:101020008EE291E0909373028093720286E0809347
:10103000740260E00E940502C1E0C093770286E47A
:1010400090E090938302809382020E94A0026093BA
:101050007E0270937F028093800290938102C093FE
:10106000750261E0809174020E94D50110927602AF
:1010700080917502811102C0C093760210928502A0
:1010800010928402109287021092860210928902B6
:101090001092880210928B0210928A0210928D0296
:1010A00010928C0281E080938E0226E231E0309330
:1010B00073022093720210928F021092900210928B
:1010C000910220E231E030935402209353021092B7
:1010D000560210925C021092630210926402109207
:1010E0006502109266028093620280935F02109202
:1010F000600292E090936102809355028BE190E050
:1011000090935A02809359020E94AF0A90935E0214
:1011100080935D02009761F02BE1FC0111922A950A
:10112000E9F789E090E0909358028093570208C055
:1011300010925A02109259021092580210925702BD
:1011400089E080935B0280915602882341F061E040
:1011500089E00E94050260E089E00E94D501E7EB8A
:10116000F0E0E491F0E0EE0FFF1FEC55FF4F8591AA
:1011700094919093680280936702E9E9F0E0E4912A
:10118000E093690210926A0210926B0210926C0254
:1011900010926D0210926E0210926F021092710204
:1011A0001092700280915B0287FD08C061E00E948E
:1011B000050260E080915B020E94D50181E080938E
:1011C00056028AE191E090934B0280934A0210927A
:1011D0004E0210924F021092500210925102109241
:1011E00052028DE080934D0261E00E94050260E0B2
:1011F00080914D020E94D50110924C02CF9108952A
:10120000CF93DF9300D000D000D0CDB7DEB7789475
:1012100084B5826084BD84B5816084BD85B58260FB
:1012200085BD85B5816085BD80916E0081608093AC
:101230006E00109281008091810082608093810015
:101240008091810081608093810080918000816025
:10125000809380008091B10084608093B100809180
:10126000B00081608093B00080917A0084608093A8
:101270007A0080917A00826080937A0080917A006F
:10128000816080937A0080917A00806880937A00F0
:101290001092C1001092460210924702109248022A
:1012A0001092490210920402109205021092060256
:1012B0001092070260ED77E080E090E00E94660205
:1012C00085E691E090934502809344020E948D0050
:1012D0000E94A002609304027093050280930602AC
:1012E0009093070263E471E080914402909145027B
:1012F0000E9480056AE070E080E090E00E94660253
:1013000081E0809318020E948D0065E571E085E61A
:1013100091E00E94800562E571E085E691E00E941F
:1013200080058091940290919502209192023091D3
:1013300093028217930709F56C01CC0CDD1C892BF5
:1013400011F0C60102C081E090E090939502809375
:101350009402880F991F0E94AF0A8C01E0909602B8
:10136000F0909702A601B7010E94E10BC7010E940D
:10137000440B1093970200939602E0919602F0912D
:10138000970280919202909193029C012F5F3F4FB0
:101390003093930220939202880F991FE80FF91F50
:1013A00082E792E0918380831A8219821C821B82D9
:1013B0001E821D8200E010E08091920290919302C3
:1013C0000817190708F062C0E0919602F0919702A1
:1013D0006801CC0CDD1CEC0DFD1D80819181DC01D0
:1013E000ED91FC910190F081E02D09957C018091B7
:1013F000960290919702FC01EC0DFD1D8081918178
:10140000DC01ED91FC910280F381E02D0995C82E5D
:10141000D12CAB80BC8089819A81A816B90609F5C8
:10142000A114B10421F0C501880F991F02C081E009
:1014300090E09C838B83880F991F880F991F0E94CF
:10144000AF0A4C016D807E80A501440F551F440FEB
:10145000551FB3010E94E10BC3010E94440B9E8201
:101460008D82ED81FE8129813A81C90101969A839D
:101470008983220F331F220F331FE20FF31FF182E4
:10148000E082D382C2820F5F1F4F96CFBE016F5F93
:101490007F4F8AE492E00E940A03BE016F5F7F4F94
:1014A00083E592E00E9495058D819E810E94440B08
:1014B0000E94A20179CF80E291E090935402809340
:1014C000530280915D0290915E02009711F00E949C
:1014D000440B80915B0287FD03C060E00E9405021F
:1014E00080919602909197020C94440BAA1BBB1B0F
:1014F00051E107C0AA1FBB1FA617B70710F0A61B14
:10150000B70B881F991F5A95A9F780959095BC0134
:10151000CD010895052E97FB1EF400940E94A10AA8
:1015200057FD07D00E94F10B07FC03D04EF40C943A
:10153000A10A50954095309521953F4F4F4F5F4FF1
:10154000089590958095709561957F4F8F4F9F4F2F
:101550000895EE0FFF1F0590F491E02D0994CF93AD
:10156000DF938230910510F482E090E0E0919A02DE
:10157000F0919B0220E030E0C0E0D0E0309711F124
:101580004081518148175907C0F04817590761F445
:1015900082819381209719F09B838A832BC090933B
:1015A0009B0280939A0226C02115310519F042173B
:1015B000530718F49A01BE01DF01EF010280F381A5
:1015C000E02DDCCF2115310509F1281B390B243022
:1015D000310590F412968D919C91139761157105C8
:1015E00021F0FB019383828304C090939B0280933C
:1015F0009A02FD01329644C0FD01E20FF31F819370
:101600009193225031092D933C933AC02091980236
:1016100030919902232B41F4209102013091030172
:10162000309399022093980220910001309101019A
:101630002115310541F42DB73EB740910401509179
:101640000501241B350BE0919802F0919902E217F5
:10165000F307A0F42E1B3F0B2817390778F0AC01D5
:101660004E5F5F4F2417350748F04E0F5F1F5093B2
:101670009902409398028193919302C0E0E0F0E0D8
:10168000CF01DF91CF9108950F931F93CF93DF93F5
:10169000009709F48CC0FC013297138212820091EA
:1016A0009A0210919B020115110581F4208131816C
:1016B000820F931F209198023091990228173907C1
:1016C00079F5F0939902E093980271C0D80140E057
:1016D00050E0AE17BF0750F412962D913C9113972E
:1016E000AD012115310509F1D901F3CF9D01DA01D1
:1016F0003383228360817181860F971F821793073E
:1017000069F4EC0128813981260F371F2E5F3F4F86
:10171000318320838A819B8193838283452B29F4A3
:10172000F0939B02E0939A0242C01396FC93EE93CF
:101730001297ED01499159919E01240F351FE2172F
:10174000F30771F480819181840F951F02961196A1
:101750009C938E938281938113969C938E93129780
:10176000E0E0F0E0D80112968D919C9113970097DC
:1017700019F0F8018C01F6CF8D919C9198012E5FA4
:101780003F4F820F931F20919802309199022817A2
:10179000390769F4309729F410929B0210929A024B
:1017A00002C0138212821093990200939802DF9173
:1017B000CF911F910F91089581E090E0F8940C94DF
:1017C000130CFB01DC0102C001900D92415050400E
:1017D000D8F70895DC0101C06D9341505040E0F707
:1017E0000895A1E21A2EAA1BBB1BFD010DC0AA1F62
:1017F000BB1FEE1FFF1FA217B307E407F50720F07A
:10180000A21BB30BE40BF50B661F771F881F991FF4
:101810001A9469F760957095809590959B01AC013D
:10182000BD01CF01089510E0C2E6D0E004C0FE0182
:101830000E94A90A2196C336D107C9F7F894FFCFB1
:1018400000009C028000000000003901B500020188
:10185000E000F4008001000000000A030000000026
:101860009505000000005203810400000000FD0601
:10187000FD064C65645374726970205F6D6F64651A
:101880003A2000564D4450565F317C315F564D44EE
:0C18900050560D0A005374617274000081
:107800000C94343C0C94513C0C94513C0C94513CE1
:107810000C94513C0C94513C0C94513C0C94513CB4
:107820000C94513C0C94513C0C94513C0C94513CA4
:107830000C94513C0C94513C0C94513C0C94513C94
:107840000C94513C0C94513C0C94513C0C94513C84
:107850000C94513C0C94513C0C94513C0C94513C74
:107860000C94513C0C94513C11241FBECFEFD8E036
:10787000DEBFCDBF11E0A0E0B1E0ECE9FFE702C060
:1078800005900D92A230B107D9F712E0A2E0B1E065
:1078900001C01D92AD30B107E1F70E942D3D0C945F
:1078A000CC3F0C94003C982F959595959595959582
:1078B000905D8F708A307CF0282F295A8091C0000B
:1078C00085FFFCCF9093C6008091C00085FFFCCF60
:1078D0002093C6000895282F205DF0CF982F809127
:1078E000C00085FFFCCF9093C6000895EF92FF92F1
:1078F0000F931F93EE24FF2487018091C00087FD22
:1079000017C00894E11CF11C011D111D81E4E8164B
:1079100082E4F8068FE0080780E0180770F3E09132
:107920000401F091050109958091C00087FFE9CF1E
:107930008091C6001F910F91FF90EF9008950E94D3
:10794000763C982F8091C00085FFFCCF9093C600B5
:1079500091362CF490330CF09053892F089597555D
:10796000892F08951F930E949F3C182F0E949F3CCF
:107970001295107F810F1F9108951F93182F882350
:1079800021F00E94763C1150E1F71F9108951F935A
:10799000182F0E94763C803249F0809103018F5F5E
:1079A000809303018530C1F01F9108958091C0003C
:1079B00085FFFCCF84E18093C6008091C00085FFE5
:1079C000FCCF1093C6008091C00085FFFCCF80E102
:1079D0008093C6001F910895E0910401F091050184
:1079E00009951F9108950E94763C803241F0809164
:1079F00003018F5F80930301853081F008958091AA
:107A0000C00085FFFCCF84E18093C6008091C00058
:107A100085FFFCCF80E18093C6000895E0910401CA
:107A2000F09105010995089540E951E08823A1F0FE
:107A30002D9A28EE33E0FA013197F1F721503040CA
:107A4000D1F72D9828EE33E0FA013197F1F7215064
:107A50003040D1F7815061F708953F924F925F9285
:107A60006F927F928F929F92AF92BF92CF92DF924E
:107A7000EF92FF920F931F93CF93DF93000080E16B
:107A80008093C4001092C50088E18093C10086E015
:107A90008093C2005098589A259A81E00E94143D24
:107AA00024E1F22E9EE1E92E85E9D82E0FE0C02ECA
:107AB00010E1B12EAA24A394B1E49B2EA6E58A2E50
:107AC000F2E57F2EE0E26E2E79E4572E63E5462E36
:107AD00050E5352E0E94763C8033B1F18133B9F107
:107AE000803409F46FC0813409F476C0823409F41B
:107AF00085C0853409F488C0803531F1823521F1A3
:107B0000813511F1853509F485C0863509F48DC0BC
:107B1000843609F496C0843709F403C1853709F423
:107B200072C1863709F466C0809103018F5F80932C
:107B30000301853079F6E0910401F0910501099582
:107B40000E94763C803351F60E94F33CC3CF0E94E2
:107B5000763C803249F78091C00085FFFCCFF092DF
:107B6000C6008091C00085FFFCCF9092C600809136
:107B7000C00085FFFCCF8092C6008091C00085FFC9
:107B8000FCCF7092C6008091C00085FFFCCF609250
:107B9000C6008091C00085FFFCCF5092C600809146
:107BA000C00085FFFCCF4092C6008091C00085FFD9
:107BB000FCCF3092C6008091C00085FFFCCFB09210
:107BC000C60088CF0E94763C863808F4BDCF0E945C
:107BD000763C0E94F33C7ECF0E94763C803809F4CC
:107BE0009CC0813809F40BC1823809F43CC1883942
:107BF00009F48FC080E00E94C73C6CCF84E10E94F2
:107C0000BD3C0E94F33C66CF85E00E94BD3C0E94D3
:107C1000F33C60CF0E94763C809306010E94763C44
:107C2000809307010E94F33C55CF0E94763C80333D
:107C300009F41DC183E00E94BD3C80E00E94C73C66
:107C400049CF0E94763C809309020E94763C809343
:107C5000080280910C028E7F80930C020E94763C79
:107C6000853409F415C18091080290910902892B8D
:107C700089F000E010E00E94763CF801E85FFE4FDA
:107C800080830F5F1F4F80910802909109020817AF
:107C9000190788F30E94763C803209F045CF809125
:107CA0000C0280FF01C16091060170910701660F0F
:107CB000771F7093070160930601A0910802B091AD
:107CC00009021097C9F0E8E0F1E09B01AD014E0F09
:107CD0005F1FF999FECF32BD21BD819180BDFA9A17
:107CE000F99A2F5F3F4FE417F50799F76A0F7B1F4B
:107CF00070930701609306018091C00085FFFCCF5F
:107D0000F092C6008091C00085FFFCCFB092C60003
:107D1000E1CE83E00E94C73CDDCE82E00E94C73CFA
:107D2000D9CE0E94763C809309020E94763C8093D3
:107D300008028091060190910701880F991F909386
:107D40000701809306010E94763C853409F4A6C0A1
:107D500080910C028E7F80930C020E94763C8032D0
:107D600009F0B8CE8091C00085FFFCCFF092C6002C
:107D7000609108027091090261157105B9F140E046
:107D800050E080910C02A82FA170B82FB27011C0E2
:107D9000BB2309F45CC0E0910601F0910701319624
:107DA000F0930701E09306014F5F5F4F46175707B7
:107DB000E8F4AA2369F3F999FECF209106013091E6
:107DC000070132BD21BDF89A90B58091C00085FFB2
:107DD000FCCF9093C6002F5F3F4F30930701209355
:107DE00006014F5F5F4F4617570718F38091C00099
:107DF00085FDE5CE8091C00085FFF8CFE0CE81E023
:107E00000E94C73C67CE0E94763C803209F08CCE3F
:107E10008091C00085FFFCCFF092C6008091C00029
:107E200085FFFCCFE092C6008091C00085FFFCCFAB
:107E3000D092C6008091C00085FFFCCFC092C600E2
:107E40008091C00085FFFCCFB092C60043CEE09188
:107E50000601F091070194918091C00085FFFCCF4D
:107E60009093C6009CCF80E10E94C73C33CE0E9415
:107E7000763C0E94763C182F0E94763C112309F430
:107E800083C0113009F484C08FE00E94C73C22CE29
:107E900080910C02816080930C02E5CE80910C02EF
:107EA000816080930C0259CF809107018823880F4D
:107EB000880B8A2180930B02809106019091070123
:107EC000880F991F90930701809306018091080203
:107ED00080FF09C080910802909109020196909359
:107EE000090280930802F894F999FECF1127E091D6
:107EF0000601F0910701C8E0D1E08091080290915D
:107F00000902103091F40091570001700130D9F34B
:107F100003E000935700E89500915700017001308D
:107F2000D9F301E100935700E89509901990009169
:107F3000570001700130D9F301E000935700E89534
:107F40001395103498F011270091570001700130FB
:107F5000D9F305E000935700E895009157000170B0
:107F60000130D9F301E100935700E895329602976A
:107F700009F0C7CF103011F00296E5CF112480919F
:107F8000C00085FFB9CEBCCE8EE10E94C73CA2CD19
:0C7F900085E90E94C73C9ECDF894FFCF0D
:027F9C00800063
:040000030000780081
:00000001FF