:100000000C9463000C948B000C948B000C948B006C
:100010000C948B000C948B000C948B000C948B0034
:100020000C948B000C948B000C948B000C948B0024
:100030000C948B000C948B000C948B000C948B0014
:100040000C9433040C948B000C945B020C943502DA
:100050000C948B000C948B000C948B000C948B00F4
:100060000C948B000C948B000000000024002700EF
:100070002A0000000008000201000003040700003D
:10008000000000000000010204081020408001026E
:1000900004081020010204081020000000002500C0
:1000A00028002B00040404040404040402020202D5
:1000B00002020303030303030000000023002600E1
:1000C0002900E508DD0B11241FBECFEFD8E0DEBF0D
:1000D000CDBF11E0A0E0B1E0ECEDFEE102C0059083
:1000E0000D92A235B107D9F722E0A2E5B1E001C037
:1000F0001D92A03AB207E1F710E0C2E6D0E004C0DA
:100100002197FE010E942B0CC136D107C9F70E942E
:10011000600A0C94610F0C940000E2E5F1E0A08904
:10012000B18982E08C93A485B5851C92A685B7859C
:100130008FEC8C93108EA489B58986E08C93A2896C
:10014000B3898C9180618C93A289B3898C918860EA
:100150008C93A289B3898C9180688C930288F389EF
:10016000E02D80818F7D80830895CF92DF92EF9282
:10017000FF920F931F93CF93DF936C017A018B0152
:10018000C0E0D0E0CE15DF0589F0D8016D918D017A
:10019000D601ED91FC910190F081E02DC601099509
:1001A000892B11F47E0102C02196ECCFC701DF91AB
:1001B000CF911F910F91FF90EF90DF90CF90089516
:1001C000FC01918D828D981761F0828DDF01A80F5F
:1001D000B11D5D968C91928D9F5F9F73928F90E081
:1001E00008958FEF9FEF0895FC01918D828D9817F0
:1001F00031F0828DE80FF11D858D90E008958FEF2D
:100200009FEF0895FC01918D228D892F90E0805CF5
:100210009F4F821B91098F739927089582E591E082
:100220000E94020121E0892B09F420E0822F089529
:10023000FC01848DDF01A80FB11DA35ABF4F2C9183
:10024000848D90E001968F739927848FA689B78952
:100250002C93A089B1898C9180648C93938D848D2B
:10026000981306C00288F389E02D80818F7D8083FA
:100270000895EF92FF920F931F93CF93DF93EC01BA
:1002800081E0888F9B8D8C8D981305C0E889F98952
:10029000808185FD24C0F62E0B8D10E00F5F1F4F6F
:1002A0000F731127E02E8C8DE8120CC00FB607FCDF
:1002B000FACFE889F989808185FFF5CFCE010E94C8
:1002C0001801F1CF8B8DFE01E80FF11DE35AFF4FAE
:1002D000F0820B8FEA89FB898081806207C0EE89FA
:1002E000FF896083E889F98980818064808381E067
:1002F00090E0DF91CF911F910F91FF90EF900895C3
:10030000CF93DF93EC01888D8823C9F0EA89FB89BC
:10031000808185FD05C0A889B9898C9186FD0FC0B3
:100320000FB607FCF5CF808185FFF2CFA889B98988
:100330008C9185FFEDCFCE010E941801E7CFDF91B0
:10034000CF91089580E090E0892B29F00E940E0162
:1003500081110C94000008950E94730E61157105BF
:1003600079F0FB0101900020E9F73197AF01461BBE
:10037000570BDC01ED91FC910280F381E02D099493
:1003800080E090E008954F925F926F927F92EF929B
:10039000FF920F931F93CF93DF93CDB7DEB7A19753
:1003A0000FB6F894DEBF0FBECDBF7C01FA01CB01C2
:1003B00019A2223008F42AE08E010F5D1F4F422E51
:1003C000512C612C712CBF01A30192010E943F0F9F
:1003D000F901CA01015011096A3014F4605D01C0CD
:1003E000695CD8016C93232B242B252B61F7B80172
:1003F000C7010E94AE01A1960FB6F894DEBF0FBEF2
:10040000CDBFDF91CF911F910F91FF90EF907F9023
:100410006F905F904F900895CF92DF92EF92FF928E
:10042000CF93DF936B017C01E0915201F091530176
:100430000190F081E02D6DE282E591E00995EC01FB
:1004400044275527BA014C195D096E097F092AE036
:1004500082E591E00E94C3018C0F9D1FDF91CF9137
:10046000FF90EF90DF90CF9008951F920F920FB6FC
:100470000F9211242F933F934F935F936F937F932A
:100480008F939F93AF93BF93EF93FF9382E591E098
:100490000E941801FF91EF91BF91AF919F918F91B1
:1004A0007F916F915F914F913F912F910F900FBE70
:1004B0000F901F9018951F920F920FB60F92112454
:1004C0002F938F939F93EF93FF93E0916201F091AD
:1004D00063018081E0916801F091690182FD12C0A1
:1004E000908180916B018F5F8F7320916C018217D7
:1004F00051F0E0916B01F0E0EE5AFE4F958F809342
:100500006B0101C08081FF91EF919F918F912F919D
:100510000F900FBE0F901F901895833081F028F434
:10052000813099F08230A1F008958730A9F08830A9
:10053000B9F08430D1F4809180008F7D03C0809128
:1005400080008F7780938000089584B58F7702C0F4
:1005500084B58F7D84BD08958091B0008F7703C0EE
:100560008091B0008F7D8093B00008951F93CF934A
:10057000DF93282F30E0F901EE58FF4F8491F90105
:10058000EA57FF4FD491F901EC55FF4FC491CC23AA
:10059000C9F0162F81110E948D02EC2FF0E0EE0FB2
:1005A000FF1FE656FF4FA591B4918FB7F894111134
:1005B00005C09C91ED2FE095E92302C0EC91ED2B55
:1005C000EC938FBFDF91CF911F910895CF93DF936D
:1005D00090E0FC01EA57FF4F2491FC01EC55FF4FDE
:1005E0008491882361F190E0880F991FFC01E859FC
:1005F000FF4FC591D491FC01E656FF4FA591B491F0
:10060000611109C09FB7F89488812095822388835F
:10061000EC912E230BC0623061F49FB7F8943881BF
:10062000822F809583238883EC912E2B2C939FBF60
:1006300006C08FB7F894E8812E2B28838FBFDF91F7
:10064000CF9108953FB7F89480914C0290914D025C
:10065000A0914E02B0914F0226B5A89B05C02F3F36
:1006600019F00196A11DB11D3FBFBA2FA92F982FD8
:100670008827820F911DA11DB11DBC01CD0142E053
:10068000660F771F881F991F4A95D1F708958F929B
:100690009F92AF92BF92CF92DF92EF92FF926B0147
:1006A0007C010E9422034B015C01C114D104E104CE
:1006B000F104F1F00E942203DC01CB0188199909B1
:1006C000AA09BB09883E9340A105B10570F321E05A
:1006D000C21AD108E108F10888EE880E83E0981E5E
:1006E000A11CB11CC114D104E104F10419F7DDCF40
:1006F000FF90EF90DF90CF90BF90AF909F908F9042
:1007000008952FB7F8946091480270914902809142
:100710004A0290914B022FBF08958F929F92AF9201
:10072000BF92CF92DF92EF92FF920F931F93CF93DE
:10073000DF93EC017B018A018A818823A9F00E9462
:1007400081038C809D80AE80BF80AB01BC014819C5
:1007500059096A097B09C701FF0CAA0BBB0B841757
:100760009507A607B707F8F08A81811127C00E9474
:100770008103CC80DD80EE80FF80DC01CB018C1911
:100780009D09AE09BF09012E000C220B330B08177F
:1007900019072A073B0790F461E08B810E94B6029B
:1007A00081E08A8305C060E08B810E94B6021A82D4
:1007B0000E9481036C837D838E839F83DF91CF9121
:1007C0001F910F91FF90EF90DF90CF90BF90AF906F
:1007D0009F908F900895CF93DF93A0E0B0E040E02A
:1007E00050E0FB012081318142175307C8F4EB012F
:1007F000EC81FD81EA0FFB1F228133810190F081A2
:10080000E02DEF2B49F42A30310524F02A50FC0169
:10081000208702C0EC0128874F5F5F4F1496E1CF1D
:10082000EC012885213079F048F0223089F023301E
:10083000B9F44EE150E06EE170E00EC040ED57E0DB
:1008400062E370E009C046E950E066E970E004C088
:1008500046E950E068EE73E0DF91CF910C948D0390
:10086000DF91CF9108951F920F920FB60F9211242E
:100870002F933F938F939F93AF93BF9380914802A1
:1008800090914902A0914A02B0914B0230914702E7
:1008900023E0230F2D3720F40196A11DB11D05C0C3
:1008A00026E8230F0296A11DB11D209347028093D5
:1008B000480290934902A0934A02B0934B02809160
:1008C0004C0290914D02A0914E02B0914F020196C0
:1008D000A11DB11D80934C0290934D02A0934E0236
:1008E000B0934F02BF91AF919F918F913F912F9104
:1008F0000F900FBE0F901F90189580E090E0089524
:100900008F929F92AF92BF92CF92DF92EF92FF921F
:100910000F931F93CF93DF93FC018281938168171C
:10092000790708F04CC04A01AA24BB24B82DC32E75
:10093000D42EE52EFF24AC2D922F8781882361F0E1
:10094000889E40011124B92DC89E60011124AD2D4F
:10095000289FE00111249D2FD584C285E084F18475
:10096000DC1208C09B01220F331F620F731F6E0D34
:100970007F1D16C0660F771F660F771F6E0D7F1DD8
:10098000052F112722273327EB01CD0DD11D8823F9
:1009900029F0089F90011124232F01C0202F2883C4
:1009A0008285EB01C80FD11DB8838385EB01C80F89
:1009B000D11DA8838485FB01E80FF11D9083DF9191
:1009C000CF911F910F91FF90EF90DF90CF90BF904C
:1009D000AF909F908F900895CF92DF92EF92FF9209
:1009E0000F931F93CF93DF93EC018C010E5F1F4F8A
:1009F0008C8180FF02C0826001C08D7F8C832A8140
:100A000030E0F901EE58FF4F8491F901EA57FF4FAA
:100A1000E490F901EC55FF4FF490FF20A1F0811113
:100A20000E948D02EF2DF0E0EE0FFF1FE854FF4F04
:100A3000A591B491EC91EE2191E080E009F490E071
:100A4000292F382F02C020E030E04B8150E08C810C
:100A50002417350711F48E7F01C081608C838C814F
:100A6000282F30E0A901559547952427352720FFE9
:100A700044C00E948103CC84DD84EE84FF842D81F8
:100A8000222341F06C197D098889998968177907B3
:100A900008F45EC00E9481036C877D878E879F87E4
:100AA0008C8180FF13C08A8D9B8D01969B8F8A8FCE
:100AB000EA89FB89309711F0C80109950E948103EA
:100AC0006E837F83888799871C8E13C0EC89FD898C
:100AD000309711F0C8010995EE89FF89309711F020
:100AE000C80109958FEF9FEFDC018E839F83A88754
:100AF000B9878C8184608C832BC08B7F8C838E81A3
:100B00009F81A885B9858F3F9F4FAF4FBF4F01F1A0
:100B10008C8D81111DC00E948103CE80DF80E8840E
:100B2000F984AB01BC014C195D096E097F098A8506
:100B30009B85A0E0B0E084179507A607B70740F4AF
:100B4000E88DF98D309721F0C801099581E08C8FEF
:100B50008E819F81A885B9858F3F9F4FAF4FBF4F33
:100B6000D1F08C8D811117C00E9481030E811F81ED
:100B700028853985DC01CB01801B910BA20BB30BBF
:100B80008D3D9540A105B10530F081E08C8F9E8DA3
:100B900098279E8F8F8F8C8182FF06C080FD04C0B6
:100BA0008F8D882339F01F8E8D8D9E8D992351F066
:100BB000865F08C08D8D8F5F843010F48D8FF4CFE9
:100BC0001D8EF2CFDF91CF911F910F91FF90EF908B
:100BD000DF90CF900895CF92DF92EF92FF920F9324
:100BE0001F93CF93DF93CDB7DEB729970FB6F89455
:100BF000DEBF0FBECDBF8C01DC0118968D919C919C
:100C00001997892B09F49EC00E942203F801C6841B
:100C1000D784E088F188DC01CB018C199D09AE09ED
:100C2000BF09C297A105B10578F3F8948481958135
:100C30009A8389830084F185E02D7F01BFEFEB1A51
:100C4000FB0A80818987F80190810288F389E02D71
:100C5000D80154968C91992309F430C09081982B37
:100C600098879081809589238F838F818C8388E0FA
:100C70008B8358856F8149853B812C8189819A813D
:100C8000D701508347FD252F3A952083262F39F031
:100C9000441F00C000006083000000C0F2CF38E0B5
:100CA0004D9160830000019761F7D8015396FC9342
:100CB000EE93529749873B832C833AC09081982BBF
:100CC00098879081809589238F838F818E8388E098
:100CD0008D8358856F8149853D812E8189819A81D7
:100CE000D701508347FD252F00C000C0208300C0DE
:100CF00000C000C000C000C060830000262F3A95ED
:100D000041F0441F000000C000C000C000C000C08F
:100D1000E8CF38E04D9100C0608300C0019709F72B
:100D2000D8015396FC93EE93529749873D832E83C7
:100D30009A83898378940E942203F80166877787D3
:100D4000808B918B29960FB6F894DEBF0FBECDBF76
:100D5000DF91CF911F910F91FF90EF90DF90CF9097
:100D600008952F923F924F925F926F927F928F924F
:100D70009F92AF92BF92CF92DF92EF92FF920F932A
:100D80001F93CF93DF93EC013B0100E010E0C12CF7
:100D9000D12C88248A94982CA12CB12C2E0122E0ED
:100DA000420E511C22242A942EE1322ED3018D9121
:100DB0009C91C816D90608F076C0D3011496ED911F
:100DC000FC911597E00FF11F328123818081918181
:100DD0008230910509F45CC01CF4892B59F05DC088
:100DE0008330910509F457C0049709F056C03A8F33
:100DF0002B8F53C029853A3038F13A503F8B2F3131
:100E0000F9F0EA84FB84215031F0622F70E0C101D7
:100E10000E94F80B02C060E070E0F7012E813F8174
:100E2000CF018E199F098217930740F42081269FD6
:100E3000C001279F900D11249193F0CFBFE1B98796
:100E4000C2010E94EB0529C03F8B2223C9F3EA842B
:100E5000FB84215041F030E040E050E0C501B40196
:100E60000E940C0C02C020E030E0F7014E815F814F
:100E7000CF018E199F098417950740F44081429F46
:100E8000C001439F900D11249193F0CF1986D8CFC4
:100E9000388F298F02C03C8F2D8FEFEFCE1ADE0ADC
:100EA0000C5F1F4F83CF8F89882321F0813009F495
:100EB00060C021C18AA1882341F10E9481030E8D67
:100EC0001F8D28A139A1DC01CB01801B910BA20B46
:100ED000B30B0B97A105B10508F40DC18E010E5F90
:100EE0001F4F4E815F8160E070E08A859B850E9484
:100EF000810E6BA17CA16830710511F41AA22FC07C
:100F00006F5F7F4F7CA36BA323C00E9481030E8D74
:100F10001F8D28A139A1DC01CB01801B910BA20BF5
:100F2000B30B893E9340A105B10508F4E4C081E00C
:100F30008AA31CA21BA28E010E5F1F4F4E815F81F0
:100F400060E070E08A859B850E94810E6BA17CA188
:100F500026E936E946E950E0C8010E948004C8014C
:100F60000E94EB050E9481036E8F7F8F88A399A357
:100F7000C2C00C811D81488D598D60E070E02AE06F
:100F800082E591E00E94C3016EE471E082E591E0A8
:100F90000E94AE018C8D9D8D2A8D3B8D821B930B03
:100FA000B801615071090E94F80B7B01AB01770F0A
:100FB000660B770B77FF05C0CB01BA010E940C02CC
:100FC00005C02AE082E591E00E94C3016EE471E071
:100FD00082E591E00E94AE01088D198DAA8CBB8C30
:100FE000A016B10630F5B70180E090E00E948D0EAA
:100FF0006B017C01C8018A199B09BC0180E090E06B
:101000000E948D0E4B015C01A70196010E94880E83
:1010100087FD13C0A7019601C501B4010E949E0C73
:1010200020E030E040E85FE30E94320C6B017C017D
:101030000AC0C12CD12C760106C0C12CD12C80E86D
:10104000E82E8FE3F82EC701B6010E94100DAB0108
:10105000770F660B770B77FF05C0CB01BA010E94B3
:101060000C0205C02AE082E591E00E94C30165E41C
:1010700071E082E591E00E94AE01C701B6010E94D5
:10108000170D6E01F2E0CF0ED11C2C813D81261789
:10109000370710F07B0101C0790100E010E08C817E
:1010A0009D810817190790F40E151F052CF420E0F8
:1010B00036E940E050E003C020E030E0A901B8018B
:1010C000C6010E9480040F5F1F4FE9CFC601DF9168
:1010D000CF911F910F91FF90EF90DF90CF90BF9035
:1010E000AF909F908F907F906F905F904F903F90C8
:1010F0002F900C94EB05DF91CF911F910F91FF90F2
:10110000EF90DF90CF90BF90AF909F908F907F90A7
:101110006F905F904F903F902F900895AF92BF9245
:10112000CF92DF92EF92FF920F931F93CF93DF93B3
:10113000EC017B010A811B818881998108171907BD
:1011400009F50115110521F0C801880F991F02C08A
:1011500081E090E09B838A83880F991F880F991FF5
:101160000E94460D6C01AC80BD80A801440F551F44
:10117000440F551FB5010E94780EC5010E94DB0D7A
:10118000DD82CC82EC81FD81888199819C012F5F79
:101190003F4F39832883880F991F880F991FE80FC5
:1011A000F91FE70188819981AA81BB81808391839E
:1011B000A283B383DF91CF911F910F91FF90EF90A6
:1011C000DF90CF90BF90AF900895CF9310925501CC
:1011D0001092540188EE93E0A0E0B0E080935601B5
:1011E00090935701A0935801B09359018EE091E07C
:1011F000909353018093520185EC90E090935F01AE
:1012000080935E0184EC90E0909361018093600193
:1012100080EC90E0909363018093620181EC90E018
:10122000909365018093640182EC90E09093670154
:101230008093660186EC90E0909369018093680149
:1012400010926B0110926C0110926D0110926E0160
:1012500010925A0210925B0210925C0210925D0290
:1012600010925E0210925F02109260021092610270
:101270001092620210926302109264021092650250
:101280001092660210926702109268021092690230
:1012900010924202109241021092440210924302B4
:1012A000109246021092450282E391E0909322024E
:1012B0008093210286E08093230260E00E94E60290
:1012C000C1E0C093260286E490E0909332028093BE
:1012D00031020E94810360932D0270932E0280934D
:1012E0002F0290933002C093240261E08091230288
:1012F0000E94B6021092250280912402811102C040
:10130000C0932502109234021092330210923602DA
:1013100010923502109238021092370210923A025F
:101320001092390210923C0210923B0281E08093AD
:101330003D022AE231E030932202209321021092F2
:101340003E0210923F021092400224E231E03093BC
:10135000FD012093FC011092FF01109205021092F2
:101360000C0210920D0210920E0210920F02809346
:101370000B02809308021092090292E090930A02F5
:101380008093FE018BE190E0909303028093020230
:101390000E94460D9093070280930602009761F029
:1013A0002BE1FC0111922A95E9F789E090E09093F6
:1013B00001028093000208C0109203021092020200
:1013C000109201021092000289E080930402809141
:1013D000FF01882341F061E089E00E94E60260E0BD
:1013E00089E00E94B602EDEAF0E0E491F0E0EE0F51
:1013F000FF1FE656FF4F85919491909311028093C1
:101400001002EFE8F0E0E491E09312021092130270
:10141000109215021092140288EE93E09093170236
:101420008093160280E49FE1909319028093180242
:1014300010921A0210921B0210921C0210921D02AE
:1014400010921E021092200210921F02809104023C
:1014500087FD08C061E00E94E60260E0809104021E
:101460000E94B60281E08093FF018EE191E09093AB
:10147000F4018093F3011092F7011092F801109299
:10148000F9011092FA011092FB018DE08093F601B0
:1014900061E00E94E60260E08091F6010E94B602DF
:1014A0001092F50183E090E09093F0018093EF01BA
:1014B0008CE49DE19093F2018093F101CF91089526
:1014C000CF93DF93CDB7DEB72A970FB6F894DEBF80
:1014D0000FBECDBF789484B5826084BD84B5816031
:1014E00084BD85B5826085BD85B5816085BD8091EF
:1014F0006E00816080936E00109281008091810067
:10150000826080938100809181008160809381005E
:10151000809180008160809380008091B100846020
:101520008093B1008091B00081608093B000809181
:101530007A00846080937A0080917A008260809340
:101540007A0080917A00816080937A0080917A009D
:10155000806880937A001092C100109298021092D5
:10156000990210929A0210929B02109256021092C7
:101570005702109258021092590260ED77E080E015
:1015800090E00E94470382E591E090939702809358
:1015900096020E948D000E94810360935602709310
:1015A0005702809358029093590266E371E080914C
:1015B0009602909197020E94AE016AE070E080E08E
:1015C00090E00E94470381E080936A020E948D00B0
:1015D00068E471E082E591E00E94AE0165E471E0AB
:1015E00082E591E00E94AE01809143029091440215
:1015F00020914102309142028217930709F56C0154
:10160000CC0CDD1C892B11F0C60102C081E090E0FA
:101610009093440280934302880F991F0E94460DC5
:101620008C01E0904502F0904602A601B7010E94AD
:10163000780EC7010E94DB0D10934602009345020D
:10164000E0914502F0914602809141029091420260
:101650009C012F5F3F4F3093420220934102880F3D
:10166000991FE80FF91F81E292E09183808302E0E5
:1016700010E01A8219821C821B821E821D82E12CBC
:10168000F12C8091410290914202E816F90698F5FA
:101690006701CC0CDD1CE0914502F0914602EC0D97
:1016A000FD1D80819181DC01ED91FC910190F08123
:1016B000E02D09955C018091450290914602FC0164
:1016C000EC0DFD1D80819181DC01ED91FC9102808A
:1016D000F381E02D0995B886AF8290E09A878987DB
:1016E000BE01695F7F4FCE0101960E948E08BFEF59
:1016F000EB1AFB0AC6CF0E948103C0905002D09023
:101700005102E0905202F0905302DC01CB018C199F
:101710009D09AE09BF094097A105B10520F12091AF
:101720000001309101018091020190910301820F2B
:10173000931F9093030180930201885E9340813749
:10174000974138F03195219531093093010120936B
:1017500000010E94810360935002709351028093B4
:1017600052029093530280910201909103011887D5
:101770000F839A878987BE01695F7F4FCE010196EB
:101780000E948E086FEE71E0CE0101960E948E08D5
:10179000BE016F5F7F4F83EF91E00E94EB03BE01BC
:1017A0006F5F7F4F8CEF91E00E94B1068D819E812B
:1017B0000E94DB0D0E94A2015CCF84E291E0909335
:1017C000FD018093FC018091060290910702009731
:1017D00011F00E94DB0D8091040287FD03C060E0E0
:1017E0000E94E60280914502909146020C94DB0D26
:1017F000AA1BBB1B51E107C0AA1FBB1FA617B70737
:1018000010F0A61BB70B881F991F5A95A9F7809552
:101810009095BC01CD010895052E97FB1EF4009410
:101820000E94230C57FD07D00E943F0F07FC03D0F6
:101830004EF40C94230C50954095309521953F4FD4
:101840004F4F5F4F089590958095709561957F4FAC
:101850008F4F9F4F0895EE0FFF1F0590F491E02DDD
:1018600009945058BB27AA270E94490C0C94050FD5
:101870000E94F70E38F00E94FE0E20F039F49F3FD0
:1018800019F426F40C94F40E0EF4E095E7FB0C9496
:10189000EE0EE92F0E94160F58F3BA17620773076E
:1018A0008407950720F079F4A6F50C94380F0EF410
:1018B000E0950B2EBA2FA02D0B01B90190010C0160
:1018C000CA01A0011124FF27591B99F0593F50F478
:1018D000503E68F11A16F040A22F232F342F4427D0
:1018E000585FF3CF469537952795A795F0405395C8
:1018F000C9F77EF41F16BA0B620B730B840BBAF098
:101900009150A1F0FF0FBB1F661F771F881FC2F702
:101910000EC0BA0F621F731F841F48F48795779516
:101920006795B795F7959E3F08F0B0CF9395880FD0
:1019300008F09927EE0F9795879508950E94B20CAD
:101940000C94050F0E94FE0E58F00E94F70E40F016
:1019500029F45F3F29F00C94EE0E51110C94390FCD
:101960000C94F40E0E94160F68F39923B1F35523DB
:1019700091F3951B550BBB27AA27621773078407A2
:1019800038F09F5F5F4F220F331F441FAA1FA9F338
:1019900035D00E2E3AF0E0E832D091505040E69526
:1019A000001CCAF72BD0FE2F29D0660F771F881F87
:1019B000BB1F261737074807AB07B0E809F0BB0B7A
:1019C000802DBF01FF2793585F4F3AF09E3F51058E
:1019D00078F00C94EE0E0C94390F5F3FE4F3983ED0
:1019E000D4F3869577956795B795F7959F5FC9F777
:1019F000880F911D9695879597F90895E1E0660FF8
:101A0000771F881FBB1F621773078407BA0720F070
:101A1000621B730B840BBA0BEE1F88F7E0950895D9
:101A20000E94170D6894B1110C94390F08950E940B
:101A30001E0F88F09F5798F0B92F9927B751B0F033
:101A4000E1F0660F771F881F991F1AF0BA95C9F742
:101A500014C0B13091F00E94380FB1E008950C9499
:101A6000380F672F782F8827B85F39F0B93FCCF34C
:101A7000869577956795B395D9F73EF490958095BF
:101A8000709561957F4F8F4F9F4F0895CF93DF9350
:101A90008230910510F482E090E0E0919E02F09196
:101AA0009F0220E030E0C0E0D0E0309711F14081AB
:101AB000518148175907C0F04817590761F48281CE
:101AC0009381209719F09B838A832BC090939F0268
:101AD00080939E0226C02115310519F04217530745
:101AE00018F49A01BE01DF01EF010280F381E02DBD
:101AF000DCCF2115310509F1281B390B24303105C4
:101B000090F412968D919C9113976115710521F0B7
:101B1000FB019383828304C090939F0280939E0273
:101B2000FD01329644C0FD01E20FF31F81939193B2
:101B3000225031092D933C933AC020919C02309160
:101B40009D02232B41F4209106013091070130932F
:101B50009D0220939C0220910401309105012115E2
:101B6000310541F42DB73EB740910801509109016C
:101B7000241B350BE0919C02F0919D02E217F307C4
:101B8000A0F42E1B3F0B2817390778F0AC014E5FED
:101B90005F4F2417350748F04E0F5F1F50939D028B
:101BA00040939C028193919302C0E0E0F0E0CF016A
:101BB000DF91CF9108950F931F93CF93DF930097F9
:101BC00009F48CC0FC0132971382128200919E02AC
:101BD00010919F020115110581F420813181820F3E
:101BE000931F20919C0230919D022817390779F5A7
:101BF000F0939D02E0939C0271C0D80140E050E058
:101C0000AE17BF0750F412962D913C911397AD017A
:101C10002115310509F1D901F3CF9D01DA01338393
:101C2000228360817181860F971F8217930769F461
:101C3000EC0128813981260F371F2E5F3F4F3183FA
:101C400020838A819B8193838283452B29F4F0939F
:101C50009F02E0939E0242C01396FC93EE9312976C
:101C6000ED01499159919E01240F351FE217F307A9
:101C700071F480819181840F951F029611969C9337
:101C80008E938281938113969C938E931297E0E0BA
:101C9000F0E0D80112968D919C911397009719F05E
:101CA000F8018C01F6CF8D919C9198012E5F3F4FEA
:101CB000820F931F20919C0230919D0228173907B3
:101CC00069F4309729F410929F0210929E0202C08C
:101CD0001382128210939D0200939C02DF91CF9198
:101CE0001F910F91089581E090E0F8940C94610F9A
:101CF000FB01DC0102C001900D9241505040D8F729
:101D00000895DC0101C06D9341505040E0F7089503
:101D10000E94CA0E08F481E00895E89409C097FB78
:101D20003EF490958095709561957F4F8F4F9F4FB2
:101D30009923A9F0F92F96E9BB279395F6958795F6
:101D400077956795B795F111F8CFFAF4BB0F11F4B9
:101D500060FF1BC06F5F7F4F8F4F9F4F16C0882360
:101D600011F096E911C0772321F09EE8872F762F96
:101D700005C0662371F096E8862F70E060E02AF0D7
:101D80009A95660F771F881FDAF7880F96958795C3
:101D900097F90895990F0008550FAA0BE0E8FEEF98
:101DA00016161706E807F907C0F012161306E4071F
:101DB000F50798F0621B730B840B950B39F40A2618
:101DC00061F0232B242B252B21F408950A2609F4F6
:101DD000A140A6958FEF811D811D089597F99F67FA
:101DE00080E870E060E008959FEF80EC08950024A3
:101DF0000A941616170618060906089500240A9470
:101E000012161306140605060895092E0394000CF5
:101E100011F4882352F0BB0F40F4BF2B11F460FF84
:101E200004C06F5F7F4F8F4F9F4F089557FD9058AD
:101E3000440F551F59F05F3F71F04795880F97FB8E
:101E4000991F61F09F3F79F0879508951216130648
:101E50001406551FF2CF4695F1DF08C01616170677
:101E60001806991FF1CF86957105610508940895AC
:101E7000E894BB2766277727CB0197F90895A1E25D
:101E80001A2EAA1BBB1BFD010DC0AA1FBB1FEE1FF4
:101E9000FF1FA217B307E407F50720F0A21BB30B3F
:101EA000E40BF50B661F771F881F991F1A9469F7BB
:101EB00060957095809590959B01AC01BD01CF0117
:101EC000089510E0C2E6D0E004C0FE010E942B0C91
:0C1ED0002196C336D107C9F7F894FFCF64
:101EDC001400E8030000A00280000000000039019B
:101EEC00B5000201E000F400800100000000EB03EB
:101EFC0000000000B106000000007D04EC040000AE
:101F0C000000AC01AC01564D4450565F317C315F42
:101F1C00564D4450560D0A00537461727400203AA9
:021F2C00200093
:107800000C94343C0C94513C0C94513C0C94513CE1
:107810000C94513C0C94513C0C94513C0C94513CB4
:107820000C94513C0C94513C0C94513C0C94513CA4
:107830000C94513C0C94513C0C94513C0C94513C94
:107840000C94513C0C94513C0C94513C0C94513C84
:107850000C94513C0C94513C0C94513C0C94513C74
:107860000C94513C0C94513C11241FBECFEFD8E036
:10787000DEBFCDBF11E0A0E0B1E0ECE9FFE702C060
:1078800005900D92A230B107D9F712E0A2E0B1E065
:1078900001C01D92AD30B107E1F70E942D3D0C945F
:1078A000CC3F0C94003C982F959595959595959582
:1078B000905D8F708A307CF0282F295A8091C0000B
:1078C00085FFFCCF9093C6008091C00085FFFCCF60
:1078D0002093C6000895282F205DF0CF982F809127
:1078E000C00085FFFCCF9093C6000895EF92FF92F1
:1078F0000F931F93EE24FF2487018091C00087FD22
:1079000017C00894E11CF11C011D111D81E4E8164B
:1079100082E4F8068FE0080780E0180770F3E09132
:107920000401F091050109958091C00087FFE9CF1E
:107930008091C6001F910F91FF90EF9008950E94D3
:10794000763C982F8091C00085FFFCCF9093C600B5
:1079500091362CF490330CF09053892F089597555D
:10796000892F08951F930E949F3C182F0E949F3CCF
:107970001295107F810F1F9108951F93182F882350
:1079800021F00E94763C1150E1F71F9108951F935A
:10799000182F0E94763C803249F0809103018F5F5E
:1079A000809303018530C1F01F9108958091C0003C
:1079B00085FFFCCF84E18093C6008091C00085FFE5
:1079C000FCCF1093C6008091C00085FFFCCF80E102
:1079D0008093C6001F910895E0910401F091050184
:1079E00009951F9108950E94763C803241F0809164
:1079F00003018F5F80930301853081F008958091AA
:107A0000C00085FFFCCF84E18093C6008091C00058
:107A100085FFFCCF80E18093C6000895E0910401CA
:107A2000F09105010995089540E951E08823A1F0FE
:107A30002D9A28EE33E0FA013197F1F721503040CA
:107A4000D1F72D9828EE33E0FA013197F1F7215064
:107A50003040D1F7815061F708953F924F925F9285
:107A60006F927F928F929F92AF92BF92CF92DF924E
:107A7000EF92FF920F931F93CF93DF93000080E16B
:107A80008093C4001092C50088E18093C10086E015
:107A90008093C2005098589A259A81E00E94143D24
:107AA00024E1F22E9EE1E92E85E9D82E0FE0C02ECA
:107AB00010E1B12EAA24A394B1E49B2EA6E58A2E50
:107AC000F2E57F2EE0E26E2E79E4572E63E5462E36
:107AD00050E5352E0E94763C8033B1F18133B9F107
:107AE000803409F46FC0813409F476C0823409F41B
:107AF00085C0853409F488C0803531F1823521F1A3
:107B0000813511F1853509F485C0863509F48DC0BC
:107B1000843609F496C0843709F403C1853709F423
:107B200072C1863709F466C0809103018F5F80932C
:107B30000301853079F6E0910401F0910501099582
:107B40000E94763C803351F60E94F33CC3CF0E94E2
:107B5000763C803249F78091C00085FFFCCFF092DF
:107B6000C6008091C00085FFFCCF9092C600809136
:107B7000C00085FFFCCF8092C6008091C00085FFC9
:107B8000FCCF7092C6008091C00085FFFCCF609250
:107B9000C6008091C00085FFFCCF5092C600809146
:107BA000C00085FFFCCF4092C6008091C00085FFD9
:107BB000FCCF3092C6008091C00085FFFCCFB09210
:107BC000C60088CF0E94763C863808F4BDCF0E945C
:107BD000763C0E94F33C7ECF0E94763C803809F4CC
:107BE0009CC0813809F40BC1823809F43CC1883942
:107BF00009F48FC080E00E94C73C6CCF84E10E94F2
:107C0000BD3C0E94F33C66CF85E00E94BD3C0E94D3
:107C1000F33C60CF0E94763C809306010E94763C44
:107C2000809307010E94F33C55CF0E94763C80333D
:107C300009F41DC183E00E94BD3C80E00E94C73C66
:107C400049CF0E94763C809309020E94763C809343
:107C5000080280910C028E7F80930C020E94763C79
:107C6000853409F415C18091080290910902892B8D
:107C700089F000E010E00E94763CF801E85FFE4FDA
:107C800080830F5F1F4F80910802909109020817AF
:107C9000190788F30E94763C803209F045CF809125
:107CA0000C0280FF01C16091060170910701660F0F
:107CB000771F7093070160930601A0910802B091AD
:107CC00009021097C9F0E8E0F1E09B01AD014E0F09
:107CD0005F1FF999FECF32BD21BD819180BDFA9A17
:107CE000F99A2F5F3F4FE417F50799F76A0F7B1F4B
:107CF00070930701609306018091C00085FFFCCF5F
:107D0000F092C6008091C00085FFFCCFB092C60003
:107D1000E1CE83E00E94C73CDDCE82E00E94C73CFA
:107D2000D9CE0E94763C809309020E94763C8093D3
:107D300008028091060190910701880F991F909386
:107D40000701809306010E94763C853409F4A6C0A1
:107D500080910C028E7F80930C020E94763C8032D0
:107D600009F0B8CE8091C00085FFFCCFF092C6002C
:107D7000609108027091090261157105B9F140E046
:107D800050E080910C02A82FA170B82FB27011C0E2
:107D9000BB2309F45CC0E0910601F0910701319624
:107DA000F0930701E09306014F5F5F4F46175707B7
:107DB000E8F4AA2369F3F999FECF209106013091E6
:107DC000070132BD21BDF89A90B58091C00085FFB2
:107DD000FCCF9093C6002F5F3F4F30930701209355
:107DE00006014F5F5F4F4617570718F38091C00099
:107DF00085FDE5CE8091C00085FFF8CFE0CE81E023
:107E00000E94C73C67CE0E94763C803209F08CCE3F
:107E10008091C00085FFFCCFF092C6008091C00029
:107E200085FFFCCFE092C6008091C00085FFFCCFAB
:107E3000D092C6008091C00085FFFCCFC092C600E2
:107E40008091C00085FFFCCFB092C60043CEE09188
:107E50000601F091070194918091C00085FFFCCF4D
:107E60009093C6009CCF80E10E94C73C33CE0E9415
:107E7000763C0E94763C182F0E94763C112309F430
:107E800083C0113009F484C08FE00E94C73C22CE29
:107E900080910C02816080930C02E5CE80910C02EF
:107EA000816080930C0259CF809107018823880F4D
:107EB000880B8A2180930B02809106019091070123
:107EC000880F991F90930701809306018091080203
:107ED00080FF09C080910802909109020196909359
:107EE000090280930802F894F999FECF1127E091D6
:107EF0000601F0910701C8E0D1E08091080290915D
:107F00000902103091F40091570001700130D9F34B
:107F100003E000935700E89500915700017001308D
:107F2000D9F301E100935700E89509901990009169
:107F3000570001700130D9F301E000935700E89534
:107F40001395103498F011270091570001700130FB
:107F5000D9F305E000935700E895009157000170B0
:107F60000130D9F301E100935700E895329602976A
:107F700009F0C7CF103011F00296E5CF112480919F
:107F8000C00085FFB9CEBCCE8EE10E94C73CA2CD19
:0C7F900085E90E94C73C9ECDF894FFCF0D
:027F9C00800063
:040000030000780081
:00000001FF